{
	"contracts/MoneyPrinter.sol": {
		"MoneyPrinter": {
			"abi": [
				{
					"inputs": [],
					"payable": false,
					"stateMutability": "nonpayable",
					"type": "constructor"
				},
				{
					"payable": true,
					"stateMutability": "payable",
					"type": "fallback"
				},
				{
					"constant": false,
					"inputs": [
						{
							"internalType": "address",
							"name": "tokenIn",
							"type": "address"
						},
						{
							"internalType": "uint256",
							"name": "amountIn",
							"type": "uint256"
						},
						{
							"internalType": "uint256",
							"name": "amountOutMin",
							"type": "uint256"
						},
						{
							"internalType": "address[]",
							"name": "path",
							"type": "address[]"
						},
						{
							"internalType": "uint256",
							"name": "deadline",
							"type": "uint256"
						}
					],
					"name": "printMoney",
					"outputs": [],
					"payable": false,
					"stateMutability": "nonpayable",
					"type": "function"
				},
				{
					"constant": false,
					"inputs": [
						{
							"internalType": "address",
							"name": "_o",
							"type": "address"
						}
					],
					"name": "setOwner",
					"outputs": [],
					"payable": false,
					"stateMutability": "nonpayable",
					"type": "function"
				}
			],
			"devdoc": {
				"methods": {}
			},
			"evm": {
				"assembly": "    /* \"contracts/MoneyPrinter.sol\":172:1660  contract MoneyPrinter {... */\n  mstore(0x40, 0x80)\n    /* \"contracts/MoneyPrinter.sol\":216:258  0x10ED43C718714eb63d5aA57B78B54704E256024E */\n  0x10ed43c718714eb63d5aa57b78b54704e256024e\n    /* \"contracts/MoneyPrinter.sol\":197:258  address uni_addr = 0x10ED43C718714eb63d5aA57B78B54704E256024E */\n  0x00\n  dup1\n  0x0100\n  exp\n  dup2\n  sload\n  dup2\n  0xffffffffffffffffffffffffffffffffffffffff\n  mul\n  not\n  and\n  swap1\n  dup4\n  0xffffffffffffffffffffffffffffffffffffffff\n  and\n  mul\n  or\n  swap1\n  sstore\n  pop\n    /* \"contracts/MoneyPrinter.sol\":587:629  0xbb4CdB9CBd36B01bD1cBaEBF2De08d9173bc095c */\n  0xbb4cdb9cbd36b01bd1cbaebf2de08d9173bc095c\n    /* \"contracts/MoneyPrinter.sol\":567:629  address weth_addr = 0xbb4CdB9CBd36B01bD1cBaEBF2De08d9173bc095c */\n  0x01\n  exp(0x0100, 0x00)\n  dup2\n  sload\n  dup2\n  0xffffffffffffffffffffffffffffffffffffffff\n  mul\n  not\n  and\n  swap1\n  dup4\n  0xffffffffffffffffffffffffffffffffffffffff\n  and\n  mul\n  or\n  swap1\n  sstore\n  pop\n    /* \"contracts/MoneyPrinter.sol\":651:693  0x1AF3F329e8BE154074D8769D1FFa4eE058B1DBc3 */\n  0x1af3f329e8be154074d8769d1ffa4ee058b1dbc3\n    /* \"contracts/MoneyPrinter.sol\":632:693  address dai_addr = 0x1AF3F329e8BE154074D8769D1FFa4eE058B1DBc3 */\n  0x02\n  exp(0x0100, 0x00)\n  dup2\n  sload\n  dup2\n  0xffffffffffffffffffffffffffffffffffffffff\n  mul\n  not\n  and\n  swap1\n  dup4\n  0xffffffffffffffffffffffffffffffffffffffff\n  and\n  mul\n  or\n  swap1\n  sstore\n  pop\n    /* \"contracts/MoneyPrinter.sol\":716:758  0x8AC76a51cc950d9822D68b83fE1Ad97B32Cd580d */\n  0x8ac76a51cc950d9822d68b83fe1ad97b32cd580d\n    /* \"contracts/MoneyPrinter.sol\":696:758  address usdc_addr = 0x8AC76a51cc950d9822D68b83fE1Ad97B32Cd580d */\n  0x03\n  exp(0x0100, 0x00)\n  dup2\n  sload\n  dup2\n  0xffffffffffffffffffffffffffffffffffffffff\n  mul\n  not\n  and\n  swap1\n  dup4\n  0xffffffffffffffffffffffffffffffffffffffff\n  and\n  mul\n  or\n  swap1\n  sstore\n  pop\n    /* \"contracts/MoneyPrinter.sol\":809:817  uni_addr */\n  0x00\n  dup1\n  swap1\n  sload\n  swap1\n  0x0100\n  exp\n  swap1\n  div\n  0xffffffffffffffffffffffffffffffffffffffff\n  and\n    /* \"contracts/MoneyPrinter.sol\":765:818  IUniswapV2Router02 uni = IUniswapV2Router02(uni_addr) */\n  0x04\n  exp(0x0100, 0x00)\n  dup2\n  sload\n  dup2\n  0xffffffffffffffffffffffffffffffffffffffff\n  mul\n  not\n  and\n  swap1\n  dup4\n  0xffffffffffffffffffffffffffffffffffffffff\n  and\n  mul\n  or\n  swap1\n  sstore\n  pop\n    /* \"contracts/MoneyPrinter.sol\":845:895  constructor() public {... */\n  callvalue\n    /* \"--CODEGEN--\":8:17   */\n  dup1\n    /* \"--CODEGEN--\":5:7   */\n  iszero\n  tag_1\n  jumpi\n    /* \"--CODEGEN--\":30:31   */\n  0x00\n    /* \"--CODEGEN--\":27:28   */\n  dup1\n    /* \"--CODEGEN--\":20:32   */\n  revert\n    /* \"--CODEGEN--\":5:7   */\ntag_1:\n    /* \"contracts/MoneyPrinter.sol\":845:895  constructor() public {... */\n  pop\n    /* \"contracts/MoneyPrinter.sol\":878:888  msg.sender */\n  caller\n    /* \"contracts/MoneyPrinter.sol\":870:875  owner */\n  0x05\n  0x00\n    /* \"contracts/MoneyPrinter.sol\":870:888  owner = msg.sender */\n  0x0100\n  exp\n  dup2\n  sload\n  dup2\n  0xffffffffffffffffffffffffffffffffffffffff\n  mul\n  not\n  and\n  swap1\n  dup4\n  0xffffffffffffffffffffffffffffffffffffffff\n  and\n  mul\n  or\n  swap1\n  sstore\n  pop\n    /* \"contracts/MoneyPrinter.sol\":172:1660  contract MoneyPrinter {... */\n  dataSize(sub_0)\n  dup1\n  dataOffset(sub_0)\n  0x00\n  codecopy\n  0x00\n  return\nstop\n\nsub_0: assembly {\n        /* \"contracts/MoneyPrinter.sol\":172:1660  contract MoneyPrinter {... */\n      mstore(0x40, 0x80)\n      jumpi(tag_1, lt(calldatasize, 0x04))\n      shr(0xe0, calldataload(0x00))\n      dup1\n      0x10588581\n      eq\n      tag_2\n      jumpi\n      dup1\n      0x13af4035\n      eq\n      tag_3\n      jumpi\n    tag_1:\n      stop\n        /* \"contracts/MoneyPrinter.sol\":1033:1492  function printMoney(... */\n    tag_2:\n      callvalue\n        /* \"--CODEGEN--\":8:17   */\n      dup1\n        /* \"--CODEGEN--\":5:7   */\n      iszero\n      tag_6\n      jumpi\n        /* \"--CODEGEN--\":30:31   */\n      0x00\n        /* \"--CODEGEN--\":27:28   */\n      dup1\n        /* \"--CODEGEN--\":20:32   */\n      revert\n        /* \"--CODEGEN--\":5:7   */\n    tag_6:\n        /* \"contracts/MoneyPrinter.sol\":1033:1492  function printMoney(... */\n      pop\n      tag_7\n      0x04\n      dup1\n      calldatasize\n      sub\n      tag_8\n      swap2\n      swap1\n      dup2\n      add\n      swap1\n      jump(tag_9)\n    tag_8:\n      tag_10\n      jump\t// in\n    tag_7:\n      stop\n        /* \"contracts/MoneyPrinter.sol\":963:1030  function setOwner(address _o) onlyOwner external {... */\n    tag_3:\n      callvalue\n        /* \"--CODEGEN--\":8:17   */\n      dup1\n        /* \"--CODEGEN--\":5:7   */\n      iszero\n      tag_11\n      jumpi\n        /* \"--CODEGEN--\":30:31   */\n      0x00\n        /* \"--CODEGEN--\":27:28   */\n      dup1\n        /* \"--CODEGEN--\":20:32   */\n      revert\n        /* \"--CODEGEN--\":5:7   */\n    tag_11:\n        /* \"contracts/MoneyPrinter.sol\":963:1030  function setOwner(address _o) onlyOwner external {... */\n      pop\n      tag_12\n      0x04\n      dup1\n      calldatasize\n      sub\n      tag_13\n      swap2\n      swap1\n      dup2\n      add\n      swap1\n      jump(tag_14)\n    tag_13:\n      tag_15\n      jump\t// in\n    tag_12:\n      stop\n        /* \"contracts/MoneyPrinter.sol\":1033:1492  function printMoney(... */\n    tag_10:\n        /* \"contracts/MoneyPrinter.sol\":945:950  owner */\n      0x05\n      0x00\n      swap1\n      sload\n      swap1\n      0x0100\n      exp\n      swap1\n      div\n      0xffffffffffffffffffffffffffffffffffffffff\n      and\n        /* \"contracts/MoneyPrinter.sol\":931:950  msg.sender == owner */\n      0xffffffffffffffffffffffffffffffffffffffff\n      and\n        /* \"contracts/MoneyPrinter.sol\":931:941  msg.sender */\n      caller\n        /* \"contracts/MoneyPrinter.sol\":931:950  msg.sender == owner */\n      0xffffffffffffffffffffffffffffffffffffffff\n      and\n      eq\n        /* \"contracts/MoneyPrinter.sol\":923:951  require(msg.sender == owner) */\n      tag_17\n      jumpi\n      0x00\n      dup1\n      revert\n    tag_17:\n        /* \"contracts/MoneyPrinter.sol\":1228:1240  IERC20 erc20 */\n      0x00\n        /* \"contracts/MoneyPrinter.sol\":1250:1257  tokenIn */\n      dup7\n        /* \"contracts/MoneyPrinter.sol\":1228:1258  IERC20 erc20 = IERC20(tokenIn) */\n      swap1\n      pop\n        /* \"contracts/MoneyPrinter.sol\":1268:1273  erc20 */\n      dup1\n        /* \"contracts/MoneyPrinter.sol\":1268:1286  erc20.transferFrom */\n      0xffffffffffffffffffffffffffffffffffffffff\n      and\n      0x23b872dd\n        /* \"contracts/MoneyPrinter.sol\":1287:1297  msg.sender */\n      caller\n        /* \"contracts/MoneyPrinter.sol\":1307:1311  this */\n      address\n        /* \"contracts/MoneyPrinter.sol\":1314:1322  amountIn */\n      dup10\n        /* \"contracts/MoneyPrinter.sol\":1268:1323  erc20.transferFrom(msg.sender, address(this), amountIn) */\n      mload(0x40)\n      dup5\n      0xffffffff\n      and\n      0xe0\n      shl\n      dup2\n      mstore\n      0x04\n      add\n      tag_19\n      swap4\n      swap3\n      swap2\n      swap1\n      jump(tag_20)\n    tag_19:\n      0x20\n      mload(0x40)\n      dup1\n      dup4\n      sub\n      dup2\n      0x00\n      dup8\n      dup1\n      extcodesize\n      iszero\n        /* \"--CODEGEN--\":8:17   */\n      dup1\n        /* \"--CODEGEN--\":5:7   */\n      iszero\n      tag_21\n      jumpi\n        /* \"--CODEGEN--\":30:31   */\n      0x00\n        /* \"--CODEGEN--\":27:28   */\n      dup1\n        /* \"--CODEGEN--\":20:32   */\n      revert\n        /* \"--CODEGEN--\":5:7   */\n    tag_21:\n        /* \"contracts/MoneyPrinter.sol\":1268:1323  erc20.transferFrom(msg.sender, address(this), amountIn) */\n      pop\n      gas\n      call\n      iszero\n        /* \"--CODEGEN--\":8:17   */\n      dup1\n        /* \"--CODEGEN--\":5:7   */\n      iszero\n      tag_22\n      jumpi\n        /* \"--CODEGEN--\":45:61   */\n      returndatasize\n        /* \"--CODEGEN--\":42:43   */\n      0x00\n        /* \"--CODEGEN--\":39:40   */\n      dup1\n        /* \"--CODEGEN--\":24:62   */\n      returndatacopy\n        /* \"--CODEGEN--\":77:93   */\n      returndatasize\n        /* \"--CODEGEN--\":74:75   */\n      0x00\n        /* \"--CODEGEN--\":67:94   */\n      revert\n        /* \"--CODEGEN--\":5:7   */\n    tag_22:\n        /* \"contracts/MoneyPrinter.sol\":1268:1323  erc20.transferFrom(msg.sender, address(this), amountIn) */\n      pop\n      pop\n      pop\n      pop\n      mload(0x40)\n      returndatasize\n        /* \"--CODEGEN--\":101:105   */\n      0x1f\n        /* \"--CODEGEN--\":97:106   */\n      not\n        /* \"--CODEGEN--\":90:94   */\n      0x1f\n        /* \"--CODEGEN--\":84:88   */\n      dup3\n        /* \"--CODEGEN--\":80:95   */\n      add\n        /* \"--CODEGEN--\":76:107   */\n      and\n        /* \"--CODEGEN--\":69:74   */\n      dup3\n        /* \"--CODEGEN--\":65:108   */\n      add\n        /* \"--CODEGEN--\":126:132   */\n      dup1\n        /* \"--CODEGEN--\":120:124   */\n      0x40\n        /* \"--CODEGEN--\":113:133   */\n      mstore\n        /* \"--CODEGEN--\":0:138   */\n      pop\n        /* \"contracts/MoneyPrinter.sol\":1268:1323  erc20.transferFrom(msg.sender, address(this), amountIn) */\n      tag_23\n      swap2\n      swap1\n      dup2\n      add\n      swap1\n      jump(tag_24)\n    tag_23:\n      pop\n        /* \"contracts/MoneyPrinter.sol\":1327:1332  erc20 */\n      dup1\n        /* \"contracts/MoneyPrinter.sol\":1327:1340  erc20.approve */\n      0xffffffffffffffffffffffffffffffffffffffff\n      and\n      0x095ea7b3\n        /* \"contracts/MoneyPrinter.sol\":1341:1349  uni_addr */\n      0x00\n      dup1\n      swap1\n      sload\n      swap1\n      0x0100\n      exp\n      swap1\n      div\n      0xffffffffffffffffffffffffffffffffffffffff\n      and\n        /* \"contracts/MoneyPrinter.sol\":1351:1359  amountIn */\n      dup9\n        /* \"contracts/MoneyPrinter.sol\":1327:1360  erc20.approve(uni_addr, amountIn) */\n      mload(0x40)\n      dup4\n      0xffffffff\n      and\n      0xe0\n      shl\n      dup2\n      mstore\n      0x04\n      add\n      tag_25\n      swap3\n      swap2\n      swap1\n      jump(tag_26)\n    tag_25:\n      0x20\n      mload(0x40)\n      dup1\n      dup4\n      sub\n      dup2\n      0x00\n      dup8\n      dup1\n      extcodesize\n      iszero\n        /* \"--CODEGEN--\":8:17   */\n      dup1\n        /* \"--CODEGEN--\":5:7   */\n      iszero\n      tag_27\n      jumpi\n        /* \"--CODEGEN--\":30:31   */\n      0x00\n        /* \"--CODEGEN--\":27:28   */\n      dup1\n        /* \"--CODEGEN--\":20:32   */\n      revert\n        /* \"--CODEGEN--\":5:7   */\n    tag_27:\n        /* \"contracts/MoneyPrinter.sol\":1327:1360  erc20.approve(uni_addr, amountIn) */\n      pop\n      gas\n      call\n      iszero\n        /* \"--CODEGEN--\":8:17   */\n      dup1\n        /* \"--CODEGEN--\":5:7   */\n      iszero\n      tag_28\n      jumpi\n        /* \"--CODEGEN--\":45:61   */\n      returndatasize\n        /* \"--CODEGEN--\":42:43   */\n      0x00\n        /* \"--CODEGEN--\":39:40   */\n      dup1\n        /* \"--CODEGEN--\":24:62   */\n      returndatacopy\n        /* \"--CODEGEN--\":77:93   */\n      returndatasize\n        /* \"--CODEGEN--\":74:75   */\n      0x00\n        /* \"--CODEGEN--\":67:94   */\n      revert\n        /* \"--CODEGEN--\":5:7   */\n    tag_28:\n        /* \"contracts/MoneyPrinter.sol\":1327:1360  erc20.approve(uni_addr, amountIn) */\n      pop\n      pop\n      pop\n      pop\n      mload(0x40)\n      returndatasize\n        /* \"--CODEGEN--\":101:105   */\n      0x1f\n        /* \"--CODEGEN--\":97:106   */\n      not\n        /* \"--CODEGEN--\":90:94   */\n      0x1f\n        /* \"--CODEGEN--\":84:88   */\n      dup3\n        /* \"--CODEGEN--\":80:95   */\n      add\n        /* \"--CODEGEN--\":76:107   */\n      and\n        /* \"--CODEGEN--\":69:74   */\n      dup3\n        /* \"--CODEGEN--\":65:108   */\n      add\n        /* \"--CODEGEN--\":126:132   */\n      dup1\n        /* \"--CODEGEN--\":120:124   */\n      0x40\n        /* \"--CODEGEN--\":113:133   */\n      mstore\n        /* \"--CODEGEN--\":0:138   */\n      pop\n        /* \"contracts/MoneyPrinter.sol\":1327:1360  erc20.approve(uni_addr, amountIn) */\n      tag_29\n      swap2\n      swap1\n      dup2\n      add\n      swap1\n      jump(tag_24)\n    tag_29:\n      pop\n        /* \"contracts/MoneyPrinter.sol\":1405:1408  uni */\n      0x04\n      0x00\n      swap1\n      sload\n      swap1\n      0x0100\n      exp\n      swap1\n      div\n      0xffffffffffffffffffffffffffffffffffffffff\n      and\n        /* \"contracts/MoneyPrinter.sol\":1405:1433  uni.swapExactTokensForTokens */\n      0xffffffffffffffffffffffffffffffffffffffff\n      and\n      0x38ed1739\n        /* \"contracts/MoneyPrinter.sol\":1434:1442  amountIn */\n      dup8\n        /* \"contracts/MoneyPrinter.sol\":1444:1456  amountOutMin */\n      dup8\n        /* \"contracts/MoneyPrinter.sol\":1458:1462  path */\n      dup8\n      dup8\n        /* \"contracts/MoneyPrinter.sol\":1464:1474  msg.sender */\n      caller\n        /* \"contracts/MoneyPrinter.sol\":1476:1484  deadline */\n      dup9\n        /* \"contracts/MoneyPrinter.sol\":1405:1485  uni.swapExactTokensForTokens(amountIn, amountOutMin, path, msg.sender, deadline) */\n      mload(0x40)\n      dup8\n      0xffffffff\n      and\n      0xe0\n      shl\n      dup2\n      mstore\n      0x04\n      add\n      tag_30\n      swap7\n      swap6\n      swap5\n      swap4\n      swap3\n      swap2\n      swap1\n      jump(tag_31)\n    tag_30:\n      0x00\n      mload(0x40)\n      dup1\n      dup4\n      sub\n      dup2\n      0x00\n      dup8\n      dup1\n      extcodesize\n      iszero\n        /* \"--CODEGEN--\":8:17   */\n      dup1\n        /* \"--CODEGEN--\":5:7   */\n      iszero\n      tag_32\n      jumpi\n        /* \"--CODEGEN--\":30:31   */\n      0x00\n        /* \"--CODEGEN--\":27:28   */\n      dup1\n        /* \"--CODEGEN--\":20:32   */\n      revert\n        /* \"--CODEGEN--\":5:7   */\n    tag_32:\n        /* \"contracts/MoneyPrinter.sol\":1405:1485  uni.swapExactTokensForTokens(amountIn, amountOutMin, path, msg.sender, deadline) */\n      pop\n      gas\n      call\n      iszero\n        /* \"--CODEGEN--\":8:17   */\n      dup1\n        /* \"--CODEGEN--\":5:7   */\n      iszero\n      tag_33\n      jumpi\n        /* \"--CODEGEN--\":45:61   */\n      returndatasize\n        /* \"--CODEGEN--\":42:43   */\n      0x00\n        /* \"--CODEGEN--\":39:40   */\n      dup1\n        /* \"--CODEGEN--\":24:62   */\n      returndatacopy\n        /* \"--CODEGEN--\":77:93   */\n      returndatasize\n        /* \"--CODEGEN--\":74:75   */\n      0x00\n        /* \"--CODEGEN--\":67:94   */\n      revert\n        /* \"--CODEGEN--\":5:7   */\n    tag_33:\n        /* \"contracts/MoneyPrinter.sol\":1405:1485  uni.swapExactTokensForTokens(amountIn, amountOutMin, path, msg.sender, deadline) */\n      pop\n      pop\n      pop\n      pop\n      mload(0x40)\n        /* \"--CODEGEN--\":39:55   */\n      returndatasize\n        /* \"--CODEGEN--\":36:37   */\n      0x00\n        /* \"--CODEGEN--\":17:34   */\n      dup3\n        /* \"--CODEGEN--\":2:56   */\n      returndatacopy\n        /* \"contracts/MoneyPrinter.sol\":1405:1485  uni.swapExactTokensForTokens(amountIn, amountOutMin, path, msg.sender, deadline) */\n      returndatasize\n        /* \"--CODEGEN--\":101:105   */\n      0x1f\n        /* \"--CODEGEN--\":97:106   */\n      not\n        /* \"--CODEGEN--\":90:94   */\n      0x1f\n        /* \"--CODEGEN--\":84:88   */\n      dup3\n        /* \"--CODEGEN--\":80:95   */\n      add\n        /* \"--CODEGEN--\":76:107   */\n      and\n        /* \"--CODEGEN--\":69:74   */\n      dup3\n        /* \"--CODEGEN--\":65:108   */\n      add\n        /* \"--CODEGEN--\":126:132   */\n      dup1\n        /* \"--CODEGEN--\":120:124   */\n      0x40\n        /* \"--CODEGEN--\":113:133   */\n      mstore\n        /* \"--CODEGEN--\":0:138   */\n      pop\n        /* \"contracts/MoneyPrinter.sol\":1405:1485  uni.swapExactTokensForTokens(amountIn, amountOutMin, path, msg.sender, deadline) */\n      tag_34\n      swap2\n      swap1\n      dup2\n      add\n      swap1\n      jump(tag_35)\n    tag_34:\n      pop\n        /* \"contracts/MoneyPrinter.sol\":955:956  _ */\n      pop\n        /* \"contracts/MoneyPrinter.sol\":1033:1492  function printMoney(... */\n      pop\n      pop\n      pop\n      pop\n      pop\n      pop\n      jump\t// out\n        /* \"contracts/MoneyPrinter.sol\":963:1030  function setOwner(address _o) onlyOwner external {... */\n    tag_15:\n        /* \"contracts/MoneyPrinter.sol\":945:950  owner */\n      0x05\n      0x00\n      swap1\n      sload\n      swap1\n      0x0100\n      exp\n      swap1\n      div\n      0xffffffffffffffffffffffffffffffffffffffff\n      and\n        /* \"contracts/MoneyPrinter.sol\":931:950  msg.sender == owner */\n      0xffffffffffffffffffffffffffffffffffffffff\n      and\n        /* \"contracts/MoneyPrinter.sol\":931:941  msg.sender */\n      caller\n        /* \"contracts/MoneyPrinter.sol\":931:950  msg.sender == owner */\n      0xffffffffffffffffffffffffffffffffffffffff\n      and\n      eq\n        /* \"contracts/MoneyPrinter.sol\":923:951  require(msg.sender == owner) */\n      tag_37\n      jumpi\n      0x00\n      dup1\n      revert\n    tag_37:\n        /* \"contracts/MoneyPrinter.sol\":1024:1026  _o */\n      dup1\n        /* \"contracts/MoneyPrinter.sol\":1016:1021  owner */\n      0x05\n      0x00\n        /* \"contracts/MoneyPrinter.sol\":1016:1026  owner = _o */\n      0x0100\n      exp\n      dup2\n      sload\n      dup2\n      0xffffffffffffffffffffffffffffffffffffffff\n      mul\n      not\n      and\n      swap1\n      dup4\n      0xffffffffffffffffffffffffffffffffffffffff\n      and\n      mul\n      or\n      swap1\n      sstore\n      pop\n        /* \"contracts/MoneyPrinter.sol\":963:1030  function setOwner(address _o) onlyOwner external {... */\n      pop\n      jump\t// out\n        /* \"--CODEGEN--\":5:135   */\n    tag_40:\n      0x00\n        /* \"--CODEGEN--\":85:91   */\n      dup2\n        /* \"--CODEGEN--\":72:92   */\n      calldataload\n        /* \"--CODEGEN--\":63:92   */\n      swap1\n      pop\n        /* \"--CODEGEN--\":97:130   */\n      tag_41\n        /* \"--CODEGEN--\":124:129   */\n      dup2\n        /* \"--CODEGEN--\":97:130   */\n      jump(tag_42)\n    tag_41:\n        /* \"--CODEGEN--\":57:135   */\n      swap3\n      swap2\n      pop\n      pop\n      jump\n        /* \"--CODEGEN--\":160:512   */\n    tag_43:\n      0x00\n      dup1\n        /* \"--CODEGEN--\":290:293   */\n      dup4\n        /* \"--CODEGEN--\":283:287   */\n      0x1f\n        /* \"--CODEGEN--\":275:281   */\n      dup5\n        /* \"--CODEGEN--\":271:288   */\n      add\n        /* \"--CODEGEN--\":267:294   */\n      slt\n        /* \"--CODEGEN--\":257:259   */\n      tag_44\n      jumpi\n        /* \"--CODEGEN--\":308:309   */\n      0x00\n        /* \"--CODEGEN--\":305:306   */\n      dup1\n        /* \"--CODEGEN--\":298:310   */\n      revert\n        /* \"--CODEGEN--\":257:259   */\n    tag_44:\n        /* \"--CODEGEN--\":341:347   */\n      dup3\n        /* \"--CODEGEN--\":328:348   */\n      calldataload\n        /* \"--CODEGEN--\":318:348   */\n      swap1\n      pop\n        /* \"--CODEGEN--\":368:386   */\n      0xffffffffffffffff\n        /* \"--CODEGEN--\":360:366   */\n      dup2\n        /* \"--CODEGEN--\":357:387   */\n      gt\n        /* \"--CODEGEN--\":354:356   */\n      iszero\n      tag_45\n      jumpi\n        /* \"--CODEGEN--\":400:401   */\n      0x00\n        /* \"--CODEGEN--\":397:398   */\n      dup1\n        /* \"--CODEGEN--\":390:402   */\n      revert\n        /* \"--CODEGEN--\":354:356   */\n    tag_45:\n        /* \"--CODEGEN--\":434:438   */\n      0x20\n        /* \"--CODEGEN--\":426:432   */\n      dup4\n        /* \"--CODEGEN--\":422:439   */\n      add\n        /* \"--CODEGEN--\":410:439   */\n      swap2\n      pop\n        /* \"--CODEGEN--\":485:488   */\n      dup4\n        /* \"--CODEGEN--\":477:481   */\n      0x20\n        /* \"--CODEGEN--\":469:475   */\n      dup3\n        /* \"--CODEGEN--\":465:482   */\n      mul\n        /* \"--CODEGEN--\":455:463   */\n      dup4\n        /* \"--CODEGEN--\":451:483   */\n      add\n        /* \"--CODEGEN--\":448:489   */\n      gt\n        /* \"--CODEGEN--\":445:447   */\n      iszero\n      tag_46\n      jumpi\n        /* \"--CODEGEN--\":502:503   */\n      0x00\n        /* \"--CODEGEN--\":499:500   */\n      dup1\n        /* \"--CODEGEN--\":492:504   */\n      revert\n        /* \"--CODEGEN--\":445:447   */\n    tag_46:\n        /* \"--CODEGEN--\":250:512   */\n      swap3\n      pop\n      swap3\n      swap1\n      pop\n      jump\n        /* \"--CODEGEN--\":538:1260   */\n    tag_47:\n      0x00\n        /* \"--CODEGEN--\":666:669   */\n      dup3\n        /* \"--CODEGEN--\":659:663   */\n      0x1f\n        /* \"--CODEGEN--\":651:657   */\n      dup4\n        /* \"--CODEGEN--\":647:664   */\n      add\n        /* \"--CODEGEN--\":643:670   */\n      slt\n        /* \"--CODEGEN--\":633:635   */\n      tag_48\n      jumpi\n        /* \"--CODEGEN--\":684:685   */\n      0x00\n        /* \"--CODEGEN--\":681:682   */\n      dup1\n        /* \"--CODEGEN--\":674:686   */\n      revert\n        /* \"--CODEGEN--\":633:635   */\n    tag_48:\n        /* \"--CODEGEN--\":714:720   */\n      dup2\n        /* \"--CODEGEN--\":708:721   */\n      mload\n        /* \"--CODEGEN--\":736:816   */\n      tag_49\n        /* \"--CODEGEN--\":751:815   */\n      tag_50\n        /* \"--CODEGEN--\":808:814   */\n      dup3\n        /* \"--CODEGEN--\":751:815   */\n      jump(tag_51)\n    tag_50:\n        /* \"--CODEGEN--\":736:816   */\n      jump(tag_52)\n    tag_49:\n        /* \"--CODEGEN--\":727:816   */\n      swap2\n      pop\n        /* \"--CODEGEN--\":833:838   */\n      dup2\n        /* \"--CODEGEN--\":858:864   */\n      dup2\n        /* \"--CODEGEN--\":851:856   */\n      dup4\n        /* \"--CODEGEN--\":844:865   */\n      mstore\n        /* \"--CODEGEN--\":888:892   */\n      0x20\n        /* \"--CODEGEN--\":880:886   */\n      dup5\n        /* \"--CODEGEN--\":876:893   */\n      add\n        /* \"--CODEGEN--\":866:893   */\n      swap4\n      pop\n        /* \"--CODEGEN--\":910:914   */\n      0x20\n        /* \"--CODEGEN--\":905:908   */\n      dup2\n        /* \"--CODEGEN--\":901:915   */\n      add\n        /* \"--CODEGEN--\":894:915   */\n      swap1\n      pop\n        /* \"--CODEGEN--\":963:969   */\n      dup4\n        /* \"--CODEGEN--\":1010:1013   */\n      dup6\n        /* \"--CODEGEN--\":1002:1006   */\n      0x20\n        /* \"--CODEGEN--\":994:1000   */\n      dup5\n        /* \"--CODEGEN--\":990:1007   */\n      mul\n        /* \"--CODEGEN--\":985:988   */\n      dup3\n        /* \"--CODEGEN--\":981:1008   */\n      add\n        /* \"--CODEGEN--\":978:1014   */\n      gt\n        /* \"--CODEGEN--\":975:977   */\n      iszero\n      tag_53\n      jumpi\n        /* \"--CODEGEN--\":1027:1028   */\n      0x00\n        /* \"--CODEGEN--\":1024:1025   */\n      dup1\n        /* \"--CODEGEN--\":1017:1029   */\n      revert\n        /* \"--CODEGEN--\":975:977   */\n    tag_53:\n        /* \"--CODEGEN--\":1052:1053   */\n      0x00\n        /* \"--CODEGEN--\":1037:1254   */\n    tag_54:\n        /* \"--CODEGEN--\":1062:1068   */\n      dup4\n        /* \"--CODEGEN--\":1059:1060   */\n      dup2\n        /* \"--CODEGEN--\":1056:1069   */\n      lt\n        /* \"--CODEGEN--\":1037:1254   */\n      iszero\n      tag_56\n      jumpi\n        /* \"--CODEGEN--\":1120:1123   */\n      dup2\n        /* \"--CODEGEN--\":1142:1190   */\n      tag_57\n        /* \"--CODEGEN--\":1186:1189   */\n      dup9\n        /* \"--CODEGEN--\":1174:1184   */\n      dup3\n        /* \"--CODEGEN--\":1142:1190   */\n      jump(tag_58)\n    tag_57:\n        /* \"--CODEGEN--\":1137:1140   */\n      dup5\n        /* \"--CODEGEN--\":1130:1191   */\n      mstore\n        /* \"--CODEGEN--\":1214:1218   */\n      0x20\n        /* \"--CODEGEN--\":1209:1212   */\n      dup5\n        /* \"--CODEGEN--\":1205:1219   */\n      add\n        /* \"--CODEGEN--\":1198:1219   */\n      swap4\n      pop\n        /* \"--CODEGEN--\":1242:1246   */\n      0x20\n        /* \"--CODEGEN--\":1237:1240   */\n      dup4\n        /* \"--CODEGEN--\":1233:1247   */\n      add\n        /* \"--CODEGEN--\":1226:1247   */\n      swap3\n      pop\n        /* \"--CODEGEN--\":1094:1254   */\n      pop\n        /* \"--CODEGEN--\":1084:1085   */\n      0x01\n        /* \"--CODEGEN--\":1081:1082   */\n      dup2\n        /* \"--CODEGEN--\":1077:1086   */\n      add\n        /* \"--CODEGEN--\":1072:1086   */\n      swap1\n      pop\n        /* \"--CODEGEN--\":1037:1254   */\n      jump(tag_54)\n    tag_56:\n        /* \"--CODEGEN--\":1041:1055   */\n      pop\n        /* \"--CODEGEN--\":626:1260   */\n      pop\n      pop\n      pop\n      swap3\n      swap2\n      pop\n      pop\n      jump\n        /* \"--CODEGEN--\":1268:1396   */\n    tag_59:\n      0x00\n        /* \"--CODEGEN--\":1349:1355   */\n      dup2\n        /* \"--CODEGEN--\":1343:1356   */\n      mload\n        /* \"--CODEGEN--\":1334:1356   */\n      swap1\n      pop\n        /* \"--CODEGEN--\":1361:1391   */\n      tag_60\n        /* \"--CODEGEN--\":1385:1390   */\n      dup2\n        /* \"--CODEGEN--\":1361:1391   */\n      jump(tag_61)\n    tag_60:\n        /* \"--CODEGEN--\":1328:1396   */\n      swap3\n      swap2\n      pop\n      pop\n      jump\n        /* \"--CODEGEN--\":1403:1533   */\n    tag_62:\n      0x00\n        /* \"--CODEGEN--\":1483:1489   */\n      dup2\n        /* \"--CODEGEN--\":1470:1490   */\n      calldataload\n        /* \"--CODEGEN--\":1461:1490   */\n      swap1\n      pop\n        /* \"--CODEGEN--\":1495:1528   */\n      tag_63\n        /* \"--CODEGEN--\":1522:1527   */\n      dup2\n        /* \"--CODEGEN--\":1495:1528   */\n      jump(tag_64)\n    tag_63:\n        /* \"--CODEGEN--\":1455:1533   */\n      swap3\n      swap2\n      pop\n      pop\n      jump\n        /* \"--CODEGEN--\":1540:1674   */\n    tag_58:\n      0x00\n        /* \"--CODEGEN--\":1624:1630   */\n      dup2\n        /* \"--CODEGEN--\":1618:1631   */\n      mload\n        /* \"--CODEGEN--\":1609:1631   */\n      swap1\n      pop\n        /* \"--CODEGEN--\":1636:1669   */\n      tag_65\n        /* \"--CODEGEN--\":1663:1668   */\n      dup2\n        /* \"--CODEGEN--\":1636:1669   */\n      jump(tag_64)\n    tag_65:\n        /* \"--CODEGEN--\":1603:1674   */\n      swap3\n      swap2\n      pop\n      pop\n      jump\n        /* \"--CODEGEN--\":1681:1922   */\n    tag_14:\n      0x00\n        /* \"--CODEGEN--\":1785:1787   */\n      0x20\n        /* \"--CODEGEN--\":1773:1782   */\n      dup3\n        /* \"--CODEGEN--\":1764:1771   */\n      dup5\n        /* \"--CODEGEN--\":1760:1783   */\n      sub\n        /* \"--CODEGEN--\":1756:1788   */\n      slt\n        /* \"--CODEGEN--\":1753:1755   */\n      iszero\n      tag_66\n      jumpi\n        /* \"--CODEGEN--\":1801:1802   */\n      0x00\n        /* \"--CODEGEN--\":1798:1799   */\n      dup1\n        /* \"--CODEGEN--\":1791:1803   */\n      revert\n        /* \"--CODEGEN--\":1753:1755   */\n    tag_66:\n        /* \"--CODEGEN--\":1836:1837   */\n      0x00\n        /* \"--CODEGEN--\":1853:1906   */\n      tag_67\n        /* \"--CODEGEN--\":1898:1905   */\n      dup5\n        /* \"--CODEGEN--\":1889:1895   */\n      dup3\n        /* \"--CODEGEN--\":1878:1887   */\n      dup6\n        /* \"--CODEGEN--\":1874:1896   */\n      add\n        /* \"--CODEGEN--\":1853:1906   */\n      jump(tag_40)\n    tag_67:\n        /* \"--CODEGEN--\":1843:1906   */\n      swap2\n      pop\n        /* \"--CODEGEN--\":1815:1912   */\n      pop\n        /* \"--CODEGEN--\":1747:1922   */\n      swap3\n      swap2\n      pop\n      pop\n      jump\n        /* \"--CODEGEN--\":1929:2828   */\n    tag_9:\n      0x00\n      dup1\n      0x00\n      dup1\n      0x00\n      dup1\n        /* \"--CODEGEN--\":2136:2139   */\n      0xa0\n        /* \"--CODEGEN--\":2124:2133   */\n      dup8\n        /* \"--CODEGEN--\":2115:2122   */\n      dup10\n        /* \"--CODEGEN--\":2111:2134   */\n      sub\n        /* \"--CODEGEN--\":2107:2140   */\n      slt\n        /* \"--CODEGEN--\":2104:2106   */\n      iszero\n      tag_68\n      jumpi\n        /* \"--CODEGEN--\":2153:2154   */\n      0x00\n        /* \"--CODEGEN--\":2150:2151   */\n      dup1\n        /* \"--CODEGEN--\":2143:2155   */\n      revert\n        /* \"--CODEGEN--\":2104:2106   */\n    tag_68:\n        /* \"--CODEGEN--\":2188:2189   */\n      0x00\n        /* \"--CODEGEN--\":2205:2258   */\n      tag_69\n        /* \"--CODEGEN--\":2250:2257   */\n      dup10\n        /* \"--CODEGEN--\":2241:2247   */\n      dup3\n        /* \"--CODEGEN--\":2230:2239   */\n      dup11\n        /* \"--CODEGEN--\":2226:2248   */\n      add\n        /* \"--CODEGEN--\":2205:2258   */\n      jump(tag_40)\n    tag_69:\n        /* \"--CODEGEN--\":2195:2258   */\n      swap7\n      pop\n        /* \"--CODEGEN--\":2167:2264   */\n      pop\n        /* \"--CODEGEN--\":2295:2297   */\n      0x20\n        /* \"--CODEGEN--\":2313:2366   */\n      tag_70\n        /* \"--CODEGEN--\":2358:2365   */\n      dup10\n        /* \"--CODEGEN--\":2349:2355   */\n      dup3\n        /* \"--CODEGEN--\":2338:2347   */\n      dup11\n        /* \"--CODEGEN--\":2334:2356   */\n      add\n        /* \"--CODEGEN--\":2313:2366   */\n      jump(tag_62)\n    tag_70:\n        /* \"--CODEGEN--\":2303:2366   */\n      swap6\n      pop\n        /* \"--CODEGEN--\":2274:2372   */\n      pop\n        /* \"--CODEGEN--\":2403:2405   */\n      0x40\n        /* \"--CODEGEN--\":2421:2474   */\n      tag_71\n        /* \"--CODEGEN--\":2466:2473   */\n      dup10\n        /* \"--CODEGEN--\":2457:2463   */\n      dup3\n        /* \"--CODEGEN--\":2446:2455   */\n      dup11\n        /* \"--CODEGEN--\":2442:2464   */\n      add\n        /* \"--CODEGEN--\":2421:2474   */\n      jump(tag_62)\n    tag_71:\n        /* \"--CODEGEN--\":2411:2474   */\n      swap5\n      pop\n        /* \"--CODEGEN--\":2382:2480   */\n      pop\n        /* \"--CODEGEN--\":2539:2541   */\n      0x60\n        /* \"--CODEGEN--\":2528:2537   */\n      dup8\n        /* \"--CODEGEN--\":2524:2542   */\n      add\n        /* \"--CODEGEN--\":2511:2543   */\n      calldataload\n        /* \"--CODEGEN--\":2563:2581   */\n      0xffffffffffffffff\n        /* \"--CODEGEN--\":2555:2561   */\n      dup2\n        /* \"--CODEGEN--\":2552:2582   */\n      gt\n        /* \"--CODEGEN--\":2549:2551   */\n      iszero\n      tag_72\n      jumpi\n        /* \"--CODEGEN--\":2595:2596   */\n      0x00\n        /* \"--CODEGEN--\":2592:2593   */\n      dup1\n        /* \"--CODEGEN--\":2585:2597   */\n      revert\n        /* \"--CODEGEN--\":2549:2551   */\n    tag_72:\n        /* \"--CODEGEN--\":2623:2703   */\n      tag_73\n        /* \"--CODEGEN--\":2695:2702   */\n      dup10\n        /* \"--CODEGEN--\":2686:2692   */\n      dup3\n        /* \"--CODEGEN--\":2675:2684   */\n      dup11\n        /* \"--CODEGEN--\":2671:2693   */\n      add\n        /* \"--CODEGEN--\":2623:2703   */\n      jump(tag_43)\n    tag_73:\n        /* \"--CODEGEN--\":2613:2703   */\n      swap4\n      pop\n      swap4\n      pop\n        /* \"--CODEGEN--\":2490:2709   */\n      pop\n        /* \"--CODEGEN--\":2740:2743   */\n      0x80\n        /* \"--CODEGEN--\":2759:2812   */\n      tag_74\n        /* \"--CODEGEN--\":2804:2811   */\n      dup10\n        /* \"--CODEGEN--\":2795:2801   */\n      dup3\n        /* \"--CODEGEN--\":2784:2793   */\n      dup11\n        /* \"--CODEGEN--\":2780:2802   */\n      add\n        /* \"--CODEGEN--\":2759:2812   */\n      jump(tag_62)\n    tag_74:\n        /* \"--CODEGEN--\":2749:2812   */\n      swap2\n      pop\n        /* \"--CODEGEN--\":2719:2818   */\n      pop\n        /* \"--CODEGEN--\":2098:2828   */\n      swap3\n      swap6\n      pop\n      swap3\n      swap6\n      pop\n      swap3\n      swap6\n      jump\n        /* \"--CODEGEN--\":2835:3227   */\n    tag_35:\n      0x00\n        /* \"--CODEGEN--\":2975:2977   */\n      0x20\n        /* \"--CODEGEN--\":2963:2972   */\n      dup3\n        /* \"--CODEGEN--\":2954:2961   */\n      dup5\n        /* \"--CODEGEN--\":2950:2973   */\n      sub\n        /* \"--CODEGEN--\":2946:2978   */\n      slt\n        /* \"--CODEGEN--\":2943:2945   */\n      iszero\n      tag_75\n      jumpi\n        /* \"--CODEGEN--\":2991:2992   */\n      0x00\n        /* \"--CODEGEN--\":2988:2989   */\n      dup1\n        /* \"--CODEGEN--\":2981:2993   */\n      revert\n        /* \"--CODEGEN--\":2943:2945   */\n    tag_75:\n        /* \"--CODEGEN--\":3047:3048   */\n      0x00\n        /* \"--CODEGEN--\":3036:3045   */\n      dup3\n        /* \"--CODEGEN--\":3032:3049   */\n      add\n        /* \"--CODEGEN--\":3026:3050   */\n      mload\n        /* \"--CODEGEN--\":3070:3088   */\n      0xffffffffffffffff\n        /* \"--CODEGEN--\":3062:3068   */\n      dup2\n        /* \"--CODEGEN--\":3059:3089   */\n      gt\n        /* \"--CODEGEN--\":3056:3058   */\n      iszero\n      tag_76\n      jumpi\n        /* \"--CODEGEN--\":3102:3103   */\n      0x00\n        /* \"--CODEGEN--\":3099:3100   */\n      dup1\n        /* \"--CODEGEN--\":3092:3104   */\n      revert\n        /* \"--CODEGEN--\":3056:3058   */\n    tag_76:\n        /* \"--CODEGEN--\":3122:3211   */\n      tag_77\n        /* \"--CODEGEN--\":3203:3210   */\n      dup5\n        /* \"--CODEGEN--\":3194:3200   */\n      dup3\n        /* \"--CODEGEN--\":3183:3192   */\n      dup6\n        /* \"--CODEGEN--\":3179:3201   */\n      add\n        /* \"--CODEGEN--\":3122:3211   */\n      jump(tag_47)\n    tag_77:\n        /* \"--CODEGEN--\":3112:3211   */\n      swap2\n      pop\n        /* \"--CODEGEN--\":3005:3217   */\n      pop\n        /* \"--CODEGEN--\":2937:3227   */\n      swap3\n      swap2\n      pop\n      pop\n      jump\n        /* \"--CODEGEN--\":3234:3491   */\n    tag_24:\n      0x00\n        /* \"--CODEGEN--\":3346:3348   */\n      0x20\n        /* \"--CODEGEN--\":3334:3343   */\n      dup3\n        /* \"--CODEGEN--\":3325:3332   */\n      dup5\n        /* \"--CODEGEN--\":3321:3344   */\n      sub\n        /* \"--CODEGEN--\":3317:3349   */\n      slt\n        /* \"--CODEGEN--\":3314:3316   */\n      iszero\n      tag_78\n      jumpi\n        /* \"--CODEGEN--\":3362:3363   */\n      0x00\n        /* \"--CODEGEN--\":3359:3360   */\n      dup1\n        /* \"--CODEGEN--\":3352:3364   */\n      revert\n        /* \"--CODEGEN--\":3314:3316   */\n    tag_78:\n        /* \"--CODEGEN--\":3397:3398   */\n      0x00\n        /* \"--CODEGEN--\":3414:3475   */\n      tag_79\n        /* \"--CODEGEN--\":3467:3474   */\n      dup5\n        /* \"--CODEGEN--\":3458:3464   */\n      dup3\n        /* \"--CODEGEN--\":3447:3456   */\n      dup6\n        /* \"--CODEGEN--\":3443:3465   */\n      add\n        /* \"--CODEGEN--\":3414:3475   */\n      jump(tag_59)\n    tag_79:\n        /* \"--CODEGEN--\":3404:3475   */\n      swap2\n      pop\n        /* \"--CODEGEN--\":3376:3481   */\n      pop\n        /* \"--CODEGEN--\":3308:3491   */\n      swap3\n      swap2\n      pop\n      pop\n      jump\n        /* \"--CODEGEN--\":3499:3672   */\n    tag_80:\n      0x00\n        /* \"--CODEGEN--\":3586:3632   */\n      tag_81\n        /* \"--CODEGEN--\":3628:3631   */\n      dup4\n        /* \"--CODEGEN--\":3620:3626   */\n      dup4\n        /* \"--CODEGEN--\":3586:3632   */\n      jump(tag_82)\n    tag_81:\n        /* \"--CODEGEN--\":3661:3665   */\n      0x20\n        /* \"--CODEGEN--\":3656:3659   */\n      dup4\n        /* \"--CODEGEN--\":3652:3666   */\n      add\n        /* \"--CODEGEN--\":3638:3666   */\n      swap1\n      pop\n        /* \"--CODEGEN--\":3579:3672   */\n      swap3\n      swap2\n      pop\n      pop\n      jump\n        /* \"--CODEGEN--\":3680:3822   */\n    tag_83:\n        /* \"--CODEGEN--\":3771:3816   */\n      tag_84\n        /* \"--CODEGEN--\":3810:3815   */\n      dup2\n        /* \"--CODEGEN--\":3771:3816   */\n      jump(tag_85)\n    tag_84:\n        /* \"--CODEGEN--\":3766:3769   */\n      dup3\n        /* \"--CODEGEN--\":3759:3817   */\n      mstore\n        /* \"--CODEGEN--\":3753:3822   */\n      pop\n      pop\n      jump\n        /* \"--CODEGEN--\":3829:3932   */\n    tag_82:\n        /* \"--CODEGEN--\":3902:3926   */\n      tag_86\n        /* \"--CODEGEN--\":3920:3925   */\n      dup2\n        /* \"--CODEGEN--\":3902:3926   */\n      jump(tag_87)\n    tag_86:\n        /* \"--CODEGEN--\":3897:3900   */\n      dup3\n        /* \"--CODEGEN--\":3890:3927   */\n      mstore\n        /* \"--CODEGEN--\":3884:3932   */\n      pop\n      pop\n      jump\n        /* \"--CODEGEN--\":3939:4052   */\n    tag_88:\n        /* \"--CODEGEN--\":4022:4046   */\n      tag_89\n        /* \"--CODEGEN--\":4040:4045   */\n      dup2\n        /* \"--CODEGEN--\":4022:4046   */\n      jump(tag_87)\n    tag_89:\n        /* \"--CODEGEN--\":4017:4020   */\n      dup3\n        /* \"--CODEGEN--\":4010:4047   */\n      mstore\n        /* \"--CODEGEN--\":4004:4052   */\n      pop\n      pop\n      jump\n        /* \"--CODEGEN--\":4090:4755   */\n    tag_90:\n      0x00\n        /* \"--CODEGEN--\":4244:4330   */\n      tag_91\n        /* \"--CODEGEN--\":4323:4329   */\n      dup4\n        /* \"--CODEGEN--\":4318:4321   */\n      dup6\n        /* \"--CODEGEN--\":4244:4330   */\n      jump(tag_92)\n    tag_91:\n        /* \"--CODEGEN--\":4237:4330   */\n      swap4\n      pop\n        /* \"--CODEGEN--\":4351:4409   */\n      tag_93\n        /* \"--CODEGEN--\":4403:4408   */\n      dup3\n        /* \"--CODEGEN--\":4351:4409   */\n      jump(tag_94)\n    tag_93:\n        /* \"--CODEGEN--\":4429:4436   */\n      dup1\n        /* \"--CODEGEN--\":4457:4458   */\n      0x00\n        /* \"--CODEGEN--\":4442:4733   */\n    tag_95:\n        /* \"--CODEGEN--\":4467:4473   */\n      dup6\n        /* \"--CODEGEN--\":4464:4465   */\n      dup2\n        /* \"--CODEGEN--\":4461:4474   */\n      lt\n        /* \"--CODEGEN--\":4442:4733   */\n      iszero\n      tag_97\n      jumpi\n        /* \"--CODEGEN--\":4528:4570   */\n      tag_98\n        /* \"--CODEGEN--\":4563:4569   */\n      dup3\n        /* \"--CODEGEN--\":4554:4561   */\n      dup5\n        /* \"--CODEGEN--\":4528:4570   */\n      jump(tag_99)\n    tag_98:\n        /* \"--CODEGEN--\":4584:4647   */\n      tag_100\n        /* \"--CODEGEN--\":4643:4646   */\n      dup9\n        /* \"--CODEGEN--\":4628:4641   */\n      dup3\n        /* \"--CODEGEN--\":4584:4647   */\n      jump(tag_80)\n    tag_100:\n        /* \"--CODEGEN--\":4577:4647   */\n      swap8\n      pop\n        /* \"--CODEGEN--\":4664:4726   */\n      tag_101\n        /* \"--CODEGEN--\":4719:4725   */\n      dup4\n        /* \"--CODEGEN--\":4664:4726   */\n      jump(tag_102)\n    tag_101:\n        /* \"--CODEGEN--\":4654:4726   */\n      swap3\n      pop\n        /* \"--CODEGEN--\":4499:4733   */\n      pop\n        /* \"--CODEGEN--\":4489:4490   */\n      0x01\n        /* \"--CODEGEN--\":4486:4487   */\n      dup2\n        /* \"--CODEGEN--\":4482:4491   */\n      add\n        /* \"--CODEGEN--\":4477:4491   */\n      swap1\n      pop\n        /* \"--CODEGEN--\":4442:4733   */\n      jump(tag_95)\n    tag_97:\n        /* \"--CODEGEN--\":4446:4460   */\n      pop\n        /* \"--CODEGEN--\":4746:4749   */\n      dup6\n        /* \"--CODEGEN--\":4739:4749   */\n      swap3\n      pop\n        /* \"--CODEGEN--\":4224:4755   */\n      pop\n      pop\n      swap4\n      swap3\n      pop\n      pop\n      pop\n      jump\n        /* \"--CODEGEN--\":4763:4876   */\n    tag_103:\n        /* \"--CODEGEN--\":4846:4870   */\n      tag_104\n        /* \"--CODEGEN--\":4864:4869   */\n      dup2\n        /* \"--CODEGEN--\":4846:4870   */\n      jump(tag_105)\n    tag_104:\n        /* \"--CODEGEN--\":4841:4844   */\n      dup3\n        /* \"--CODEGEN--\":4834:4871   */\n      mstore\n        /* \"--CODEGEN--\":4828:4876   */\n      pop\n      pop\n      jump\n        /* \"--CODEGEN--\":4883:5350   */\n    tag_20:\n      0x00\n        /* \"--CODEGEN--\":5073:5075   */\n      0x60\n        /* \"--CODEGEN--\":5062:5071   */\n      dup3\n        /* \"--CODEGEN--\":5058:5076   */\n      add\n        /* \"--CODEGEN--\":5050:5076   */\n      swap1\n      pop\n        /* \"--CODEGEN--\":5087:5166   */\n      tag_106\n        /* \"--CODEGEN--\":5163:5164   */\n      0x00\n        /* \"--CODEGEN--\":5152:5161   */\n      dup4\n        /* \"--CODEGEN--\":5148:5165   */\n      add\n        /* \"--CODEGEN--\":5139:5145   */\n      dup7\n        /* \"--CODEGEN--\":5087:5166   */\n      jump(tag_83)\n    tag_106:\n        /* \"--CODEGEN--\":5177:5257   */\n      tag_107\n        /* \"--CODEGEN--\":5253:5255   */\n      0x20\n        /* \"--CODEGEN--\":5242:5251   */\n      dup4\n        /* \"--CODEGEN--\":5238:5256   */\n      add\n        /* \"--CODEGEN--\":5229:5235   */\n      dup6\n        /* \"--CODEGEN--\":5177:5257   */\n      jump(tag_83)\n    tag_107:\n        /* \"--CODEGEN--\":5268:5340   */\n      tag_108\n        /* \"--CODEGEN--\":5336:5338   */\n      0x40\n        /* \"--CODEGEN--\":5325:5334   */\n      dup4\n        /* \"--CODEGEN--\":5321:5339   */\n      add\n        /* \"--CODEGEN--\":5312:5318   */\n      dup5\n        /* \"--CODEGEN--\":5268:5340   */\n      jump(tag_103)\n    tag_108:\n        /* \"--CODEGEN--\":5044:5350   */\n      swap5\n      swap4\n      pop\n      pop\n      pop\n      pop\n      jump\n        /* \"--CODEGEN--\":5357:5681   */\n    tag_26:\n      0x00\n        /* \"--CODEGEN--\":5503:5505   */\n      0x40\n        /* \"--CODEGEN--\":5492:5501   */\n      dup3\n        /* \"--CODEGEN--\":5488:5506   */\n      add\n        /* \"--CODEGEN--\":5480:5506   */\n      swap1\n      pop\n        /* \"--CODEGEN--\":5517:5588   */\n      tag_109\n        /* \"--CODEGEN--\":5585:5586   */\n      0x00\n        /* \"--CODEGEN--\":5574:5583   */\n      dup4\n        /* \"--CODEGEN--\":5570:5587   */\n      add\n        /* \"--CODEGEN--\":5561:5567   */\n      dup6\n        /* \"--CODEGEN--\":5517:5588   */\n      jump(tag_88)\n    tag_109:\n        /* \"--CODEGEN--\":5599:5671   */\n      tag_110\n        /* \"--CODEGEN--\":5667:5669   */\n      0x20\n        /* \"--CODEGEN--\":5656:5665   */\n      dup4\n        /* \"--CODEGEN--\":5652:5670   */\n      add\n        /* \"--CODEGEN--\":5643:5649   */\n      dup5\n        /* \"--CODEGEN--\":5599:5671   */\n      jump(tag_103)\n    tag_110:\n        /* \"--CODEGEN--\":5474:5681   */\n      swap4\n      swap3\n      pop\n      pop\n      pop\n      jump\n        /* \"--CODEGEN--\":5688:6531   */\n    tag_31:\n      0x00\n        /* \"--CODEGEN--\":5986:5989   */\n      0xa0\n        /* \"--CODEGEN--\":5975:5984   */\n      dup3\n        /* \"--CODEGEN--\":5971:5990   */\n      add\n        /* \"--CODEGEN--\":5963:5990   */\n      swap1\n      pop\n        /* \"--CODEGEN--\":6001:6072   */\n      tag_111\n        /* \"--CODEGEN--\":6069:6070   */\n      0x00\n        /* \"--CODEGEN--\":6058:6067   */\n      dup4\n        /* \"--CODEGEN--\":6054:6071   */\n      add\n        /* \"--CODEGEN--\":6045:6051   */\n      dup10\n        /* \"--CODEGEN--\":6001:6072   */\n      jump(tag_103)\n    tag_111:\n        /* \"--CODEGEN--\":6083:6155   */\n      tag_112\n        /* \"--CODEGEN--\":6151:6153   */\n      0x20\n        /* \"--CODEGEN--\":6140:6149   */\n      dup4\n        /* \"--CODEGEN--\":6136:6154   */\n      add\n        /* \"--CODEGEN--\":6127:6133   */\n      dup9\n        /* \"--CODEGEN--\":6083:6155   */\n      jump(tag_103)\n    tag_112:\n        /* \"--CODEGEN--\":6203:6212   */\n      dup2\n        /* \"--CODEGEN--\":6197:6201   */\n      dup2\n        /* \"--CODEGEN--\":6193:6213   */\n      sub\n        /* \"--CODEGEN--\":6188:6190   */\n      0x40\n        /* \"--CODEGEN--\":6177:6186   */\n      dup4\n        /* \"--CODEGEN--\":6173:6191   */\n      add\n        /* \"--CODEGEN--\":6166:6214   */\n      mstore\n        /* \"--CODEGEN--\":6228:6346   */\n      tag_113\n        /* \"--CODEGEN--\":6341:6345   */\n      dup2\n        /* \"--CODEGEN--\":6332:6338   */\n      dup7\n        /* \"--CODEGEN--\":6324:6330   */\n      dup9\n        /* \"--CODEGEN--\":6228:6346   */\n      jump(tag_90)\n    tag_113:\n        /* \"--CODEGEN--\":6220:6346   */\n      swap1\n      pop\n        /* \"--CODEGEN--\":6357:6437   */\n      tag_114\n        /* \"--CODEGEN--\":6433:6435   */\n      0x60\n        /* \"--CODEGEN--\":6422:6431   */\n      dup4\n        /* \"--CODEGEN--\":6418:6436   */\n      add\n        /* \"--CODEGEN--\":6409:6415   */\n      dup6\n        /* \"--CODEGEN--\":6357:6437   */\n      jump(tag_83)\n    tag_114:\n        /* \"--CODEGEN--\":6448:6521   */\n      tag_115\n        /* \"--CODEGEN--\":6516:6519   */\n      0x80\n        /* \"--CODEGEN--\":6505:6514   */\n      dup4\n        /* \"--CODEGEN--\":6501:6520   */\n      add\n        /* \"--CODEGEN--\":6492:6498   */\n      dup5\n        /* \"--CODEGEN--\":6448:6521   */\n      jump(tag_103)\n    tag_115:\n        /* \"--CODEGEN--\":5957:6531   */\n      swap8\n      swap7\n      pop\n      pop\n      pop\n      pop\n      pop\n      pop\n      pop\n      jump\n        /* \"--CODEGEN--\":6538:6794   */\n    tag_52:\n      0x00\n        /* \"--CODEGEN--\":6600:6602   */\n      0x40\n        /* \"--CODEGEN--\":6594:6603   */\n      mload\n        /* \"--CODEGEN--\":6584:6603   */\n      swap1\n      pop\n        /* \"--CODEGEN--\":6638:6642   */\n      dup2\n        /* \"--CODEGEN--\":6630:6636   */\n      dup2\n        /* \"--CODEGEN--\":6626:6643   */\n      add\n        /* \"--CODEGEN--\":6737:6743   */\n      dup2\n        /* \"--CODEGEN--\":6725:6735   */\n      dup2\n        /* \"--CODEGEN--\":6722:6744   */\n      lt\n        /* \"--CODEGEN--\":6701:6719   */\n      0xffffffffffffffff\n        /* \"--CODEGEN--\":6689:6699   */\n      dup3\n        /* \"--CODEGEN--\":6686:6720   */\n      gt\n        /* \"--CODEGEN--\":6683:6745   */\n      or\n        /* \"--CODEGEN--\":6680:6682   */\n      iszero\n      tag_116\n      jumpi\n        /* \"--CODEGEN--\":6758:6759   */\n      0x00\n        /* \"--CODEGEN--\":6755:6756   */\n      dup1\n        /* \"--CODEGEN--\":6748:6760   */\n      revert\n        /* \"--CODEGEN--\":6680:6682   */\n    tag_116:\n        /* \"--CODEGEN--\":6778:6788   */\n      dup1\n        /* \"--CODEGEN--\":6774:6776   */\n      0x40\n        /* \"--CODEGEN--\":6767:6789   */\n      mstore\n        /* \"--CODEGEN--\":6578:6794   */\n      pop\n      swap2\n      swap1\n      pop\n      jump\n        /* \"--CODEGEN--\":6801:7105   */\n    tag_51:\n      0x00\n        /* \"--CODEGEN--\":6960:6978   */\n      0xffffffffffffffff\n        /* \"--CODEGEN--\":6952:6958   */\n      dup3\n        /* \"--CODEGEN--\":6949:6979   */\n      gt\n        /* \"--CODEGEN--\":6946:6948   */\n      iszero\n      tag_117\n      jumpi\n        /* \"--CODEGEN--\":6992:6993   */\n      0x00\n        /* \"--CODEGEN--\":6989:6990   */\n      dup1\n        /* \"--CODEGEN--\":6982:6994   */\n      revert\n        /* \"--CODEGEN--\":6946:6948   */\n    tag_117:\n        /* \"--CODEGEN--\":7027:7031   */\n      0x20\n        /* \"--CODEGEN--\":7019:7025   */\n      dup3\n        /* \"--CODEGEN--\":7015:7032   */\n      mul\n        /* \"--CODEGEN--\":7007:7032   */\n      swap1\n      pop\n        /* \"--CODEGEN--\":7090:7094   */\n      0x20\n        /* \"--CODEGEN--\":7084:7088   */\n      dup2\n        /* \"--CODEGEN--\":7080:7095   */\n      add\n        /* \"--CODEGEN--\":7072:7095   */\n      swap1\n      pop\n        /* \"--CODEGEN--\":6883:7105   */\n      swap2\n      swap1\n      pop\n      jump\n        /* \"--CODEGEN--\":7112:7230   */\n    tag_94:\n      0x00\n        /* \"--CODEGEN--\":7200:7203   */\n      dup2\n        /* \"--CODEGEN--\":7192:7203   */\n      swap1\n      pop\n        /* \"--CODEGEN--\":7186:7230   */\n      swap2\n      swap1\n      pop\n      jump\n        /* \"--CODEGEN--\":7237:7347   */\n    tag_102:\n      0x00\n        /* \"--CODEGEN--\":7337:7341   */\n      0x20\n        /* \"--CODEGEN--\":7332:7335   */\n      dup3\n        /* \"--CODEGEN--\":7328:7342   */\n      add\n        /* \"--CODEGEN--\":7320:7342   */\n      swap1\n      pop\n        /* \"--CODEGEN--\":7314:7347   */\n      swap2\n      swap1\n      pop\n      jump\n        /* \"--CODEGEN--\":7355:7533   */\n    tag_92:\n      0x00\n        /* \"--CODEGEN--\":7485:7491   */\n      dup3\n        /* \"--CODEGEN--\":7480:7483   */\n      dup3\n        /* \"--CODEGEN--\":7473:7492   */\n      mstore\n        /* \"--CODEGEN--\":7522:7526   */\n      0x20\n        /* \"--CODEGEN--\":7517:7520   */\n      dup3\n        /* \"--CODEGEN--\":7513:7527   */\n      add\n        /* \"--CODEGEN--\":7498:7527   */\n      swap1\n      pop\n        /* \"--CODEGEN--\":7466:7533   */\n      swap3\n      swap2\n      pop\n      pop\n      jump\n        /* \"--CODEGEN--\":7542:7661   */\n    tag_99:\n      0x00\n        /* \"--CODEGEN--\":7616:7655   */\n      tag_118\n        /* \"--CODEGEN--\":7651:7653   */\n      0x20\n        /* \"--CODEGEN--\":7646:7649   */\n      dup5\n        /* \"--CODEGEN--\":7642:7654   */\n      add\n        /* \"--CODEGEN--\":7637:7640   */\n      dup5\n        /* \"--CODEGEN--\":7616:7655   */\n      jump(tag_40)\n    tag_118:\n        /* \"--CODEGEN--\":7607:7655   */\n      swap1\n      pop\n        /* \"--CODEGEN--\":7600:7661   */\n      swap3\n      swap2\n      pop\n      pop\n      jump\n        /* \"--CODEGEN--\":7669:7760   */\n    tag_87:\n      0x00\n        /* \"--CODEGEN--\":7731:7755   */\n      tag_119\n        /* \"--CODEGEN--\":7749:7754   */\n      dup3\n        /* \"--CODEGEN--\":7731:7755   */\n      jump(tag_120)\n    tag_119:\n        /* \"--CODEGEN--\":7720:7755   */\n      swap1\n      pop\n        /* \"--CODEGEN--\":7714:7760   */\n      swap2\n      swap1\n      pop\n      jump\n        /* \"--CODEGEN--\":7767:7852   */\n    tag_121:\n      0x00\n        /* \"--CODEGEN--\":7840:7845   */\n      dup2\n        /* \"--CODEGEN--\":7833:7846   */\n      iszero\n        /* \"--CODEGEN--\":7826:7847   */\n      iszero\n        /* \"--CODEGEN--\":7815:7847   */\n      swap1\n      pop\n        /* \"--CODEGEN--\":7809:7852   */\n      swap2\n      swap1\n      pop\n      jump\n        /* \"--CODEGEN--\":7859:7980   */\n    tag_120:\n      0x00\n        /* \"--CODEGEN--\":7932:7974   */\n      0xffffffffffffffffffffffffffffffffffffffff\n        /* \"--CODEGEN--\":7925:7930   */\n      dup3\n        /* \"--CODEGEN--\":7921:7975   */\n      and\n        /* \"--CODEGEN--\":7910:7975   */\n      swap1\n      pop\n        /* \"--CODEGEN--\":7904:7980   */\n      swap2\n      swap1\n      pop\n      jump\n        /* \"--CODEGEN--\":7987:8059   */\n    tag_105:\n      0x00\n        /* \"--CODEGEN--\":8049:8054   */\n      dup2\n        /* \"--CODEGEN--\":8038:8054   */\n      swap1\n      pop\n        /* \"--CODEGEN--\":8032:8059   */\n      swap2\n      swap1\n      pop\n      jump\n        /* \"--CODEGEN--\":8066:8195   */\n    tag_85:\n      0x00\n        /* \"--CODEGEN--\":8153:8190   */\n      tag_122\n        /* \"--CODEGEN--\":8184:8189   */\n      dup3\n        /* \"--CODEGEN--\":8153:8190   */\n      jump(tag_123)\n    tag_122:\n        /* \"--CODEGEN--\":8140:8190   */\n      swap1\n      pop\n        /* \"--CODEGEN--\":8134:8195   */\n      swap2\n      swap1\n      pop\n      jump\n        /* \"--CODEGEN--\":8202:8323   */\n    tag_123:\n      0x00\n        /* \"--CODEGEN--\":8281:8318   */\n      tag_124\n        /* \"--CODEGEN--\":8312:8317   */\n      dup3\n        /* \"--CODEGEN--\":8281:8318   */\n      jump(tag_125)\n    tag_124:\n        /* \"--CODEGEN--\":8268:8318   */\n      swap1\n      pop\n        /* \"--CODEGEN--\":8262:8323   */\n      swap2\n      swap1\n      pop\n      jump\n        /* \"--CODEGEN--\":8330:8438   */\n    tag_125:\n      0x00\n        /* \"--CODEGEN--\":8409:8433   */\n      tag_126\n        /* \"--CODEGEN--\":8427:8432   */\n      dup3\n        /* \"--CODEGEN--\":8409:8433   */\n      jump(tag_120)\n    tag_126:\n        /* \"--CODEGEN--\":8396:8433   */\n      swap1\n      pop\n        /* \"--CODEGEN--\":8390:8438   */\n      swap2\n      swap1\n      pop\n      jump\n        /* \"--CODEGEN--\":8445:8562   */\n    tag_42:\n        /* \"--CODEGEN--\":8514:8538   */\n      tag_127\n        /* \"--CODEGEN--\":8532:8537   */\n      dup2\n        /* \"--CODEGEN--\":8514:8538   */\n      jump(tag_87)\n    tag_127:\n        /* \"--CODEGEN--\":8507:8512   */\n      dup2\n        /* \"--CODEGEN--\":8504:8539   */\n      eq\n        /* \"--CODEGEN--\":8494:8496   */\n      tag_128\n      jumpi\n        /* \"--CODEGEN--\":8553:8554   */\n      0x00\n        /* \"--CODEGEN--\":8550:8551   */\n      dup1\n        /* \"--CODEGEN--\":8543:8555   */\n      revert\n        /* \"--CODEGEN--\":8494:8496   */\n    tag_128:\n        /* \"--CODEGEN--\":8488:8562   */\n      pop\n      jump\n        /* \"--CODEGEN--\":8569:8680   */\n    tag_61:\n        /* \"--CODEGEN--\":8635:8656   */\n      tag_129\n        /* \"--CODEGEN--\":8650:8655   */\n      dup2\n        /* \"--CODEGEN--\":8635:8656   */\n      jump(tag_121)\n    tag_129:\n        /* \"--CODEGEN--\":8628:8633   */\n      dup2\n        /* \"--CODEGEN--\":8625:8657   */\n      eq\n        /* \"--CODEGEN--\":8615:8617   */\n      tag_130\n      jumpi\n        /* \"--CODEGEN--\":8671:8672   */\n      0x00\n        /* \"--CODEGEN--\":8668:8669   */\n      dup1\n        /* \"--CODEGEN--\":8661:8673   */\n      revert\n        /* \"--CODEGEN--\":8615:8617   */\n    tag_130:\n        /* \"--CODEGEN--\":8609:8680   */\n      pop\n      jump\n        /* \"--CODEGEN--\":8687:8804   */\n    tag_64:\n        /* \"--CODEGEN--\":8756:8780   */\n      tag_131\n        /* \"--CODEGEN--\":8774:8779   */\n      dup2\n        /* \"--CODEGEN--\":8756:8780   */\n      jump(tag_105)\n    tag_131:\n        /* \"--CODEGEN--\":8749:8754   */\n      dup2\n        /* \"--CODEGEN--\":8746:8781   */\n      eq\n        /* \"--CODEGEN--\":8736:8738   */\n      tag_132\n      jumpi\n        /* \"--CODEGEN--\":8795:8796   */\n      0x00\n        /* \"--CODEGEN--\":8792:8793   */\n      dup1\n        /* \"--CODEGEN--\":8785:8797   */\n      revert\n        /* \"--CODEGEN--\":8736:8738   */\n    tag_132:\n        /* \"--CODEGEN--\":8730:8804   */\n      pop\n      jump\n\n    auxdata: 0xa365627a7a72315820d71eabf06ae65c6b09362b95553b48bca23b52ad78caf60ec8592f851be660766c6578706572696d656e74616cf564736f6c63430005110040\n}\n",
				"bytecode": {
					"linkReferences": {},
					"object": "60806040527310ed43c718714eb63d5aa57b78b54704e256024e6000806101000a81548173ffffffffffffffffffffffffffffffffffffffff021916908373ffffffffffffffffffffffffffffffffffffffff16021790555073bb4cdb9cbd36b01bd1cbaebf2de08d9173bc095c600160006101000a81548173ffffffffffffffffffffffffffffffffffffffff021916908373ffffffffffffffffffffffffffffffffffffffff160217905550731af3f329e8be154074d8769d1ffa4ee058b1dbc3600260006101000a81548173ffffffffffffffffffffffffffffffffffffffff021916908373ffffffffffffffffffffffffffffffffffffffff160217905550738ac76a51cc950d9822d68b83fe1ad97b32cd580d600360006101000a81548173ffffffffffffffffffffffffffffffffffffffff021916908373ffffffffffffffffffffffffffffffffffffffff1602179055506000809054906101000a900473ffffffffffffffffffffffffffffffffffffffff16600460006101000a81548173ffffffffffffffffffffffffffffffffffffffff021916908373ffffffffffffffffffffffffffffffffffffffff1602179055503480156101c557600080fd5b5033600560006101000a81548173ffffffffffffffffffffffffffffffffffffffff021916908373ffffffffffffffffffffffffffffffffffffffff1602179055506108cc806102166000396000f3fe6080604052600436106100295760003560e01c8063105885811461002b57806313af403514610054575b005b34801561003757600080fd5b50610052600480360361004d91908101906104c9565b61007d565b005b34801561006057600080fd5b5061007b600480360361007691908101906104a0565b6102e1565b005b600560009054906101000a900473ffffffffffffffffffffffffffffffffffffffff1673ffffffffffffffffffffffffffffffffffffffff163373ffffffffffffffffffffffffffffffffffffffff16146100d757600080fd5b60008690508073ffffffffffffffffffffffffffffffffffffffff166323b872dd3330896040518463ffffffff1660e01b815260040161011993929190610676565b602060405180830381600087803b15801561013357600080fd5b505af1158015610147573d6000803e3d6000fd5b505050506040513d601f19601f8201168201806040525061016b919081019061059c565b508073ffffffffffffffffffffffffffffffffffffffff1663095ea7b36000809054906101000a900473ffffffffffffffffffffffffffffffffffffffff16886040518363ffffffff1660e01b81526004016101c89291906106ad565b602060405180830381600087803b1580156101e257600080fd5b505af11580156101f6573d6000803e3d6000fd5b505050506040513d601f19601f8201168201806040525061021a919081019061059c565b50600460009054906101000a900473ffffffffffffffffffffffffffffffffffffffff1673ffffffffffffffffffffffffffffffffffffffff166338ed17398787878733886040518763ffffffff1660e01b8152600401610280969594939291906106d6565b600060405180830381600087803b15801561029a57600080fd5b505af11580156102ae573d6000803e3d6000fd5b505050506040513d6000823e3d601f19601f820116820180604052506102d7919081019061055b565b5050505050505050565b600560009054906101000a900473ffffffffffffffffffffffffffffffffffffffff1673ffffffffffffffffffffffffffffffffffffffff163373ffffffffffffffffffffffffffffffffffffffff161461033b57600080fd5b80600560006101000a81548173ffffffffffffffffffffffffffffffffffffffff021916908373ffffffffffffffffffffffffffffffffffffffff16021790555050565b60008135905061038e81610844565b92915050565b60008083601f8401126103a657600080fd5b8235905067ffffffffffffffff8111156103bf57600080fd5b6020830191508360208202830111156103d757600080fd5b9250929050565b600082601f8301126103ef57600080fd5b81516104026103fd8261075f565b610732565b9150818183526020840193506020810190508385602084028201111561042757600080fd5b60005b83811015610457578161043d888261048b565b84526020840193506020830192505060018101905061042a565b5050505092915050565b6000815190506104708161085b565b92915050565b60008135905061048581610872565b92915050565b60008151905061049a81610872565b92915050565b6000602082840312156104b257600080fd5b60006104c08482850161037f565b91505092915050565b60008060008060008060a087890312156104e257600080fd5b60006104f089828a0161037f565b965050602061050189828a01610476565b955050604061051289828a01610476565b945050606087013567ffffffffffffffff81111561052f57600080fd5b61053b89828a01610394565b9350935050608061054e89828a01610476565b9150509295509295509295565b60006020828403121561056d57600080fd5b600082015167ffffffffffffffff81111561058757600080fd5b610593848285016103de565b91505092915050565b6000602082840312156105ae57600080fd5b60006105bc84828501610461565b91505092915050565b60006105d183836105ec565b60208301905092915050565b6105e68161080e565b82525050565b6105f5816107c6565b82525050565b610604816107c6565b82525050565b6000610616838561079e565b935061062182610787565b8060005b8581101561065a5761063782846107af565b61064188826105c5565b975061064c83610791565b925050600181019050610625565b5085925050509392505050565b61067081610804565b82525050565b600060608201905061068b60008301866105dd565b61069860208301856105dd565b6106a56040830184610667565b949350505050565b60006040820190506106c260008301856105fb565b6106cf6020830184610667565b9392505050565b600060a0820190506106eb6000830189610667565b6106f86020830188610667565b818103604083015261070b81868861060a565b905061071a60608301856105dd565b6107276080830184610667565b979650505050505050565b6000604051905081810181811067ffffffffffffffff8211171561075557600080fd5b8060405250919050565b600067ffffffffffffffff82111561077657600080fd5b602082029050602081019050919050565b6000819050919050565b6000602082019050919050565b600082825260208201905092915050565b60006107be602084018461037f565b905092915050565b60006107d1826107e4565b9050919050565b60008115159050919050565b600073ffffffffffffffffffffffffffffffffffffffff82169050919050565b6000819050919050565b600061081982610820565b9050919050565b600061082b82610832565b9050919050565b600061083d826107e4565b9050919050565b61084d816107c6565b811461085857600080fd5b50565b610864816107d8565b811461086f57600080fd5b50565b61087b81610804565b811461088657600080fd5b5056fea365627a7a72315820d71eabf06ae65c6b09362b95553b48bca23b52ad78caf60ec8592f851be660766c6578706572696d656e74616cf564736f6c63430005110040",
					"opcodes": "PUSH1 0x80 PUSH1 0x40 MSTORE PUSH20 0x10ED43C718714EB63D5AA57B78B54704E256024E PUSH1 0x0 DUP1 PUSH2 0x100 EXP DUP2 SLOAD DUP2 PUSH20 0xFFFFFFFFFFFFFFFFFFFFFFFFFFFFFFFFFFFFFFFF MUL NOT AND SWAP1 DUP4 PUSH20 0xFFFFFFFFFFFFFFFFFFFFFFFFFFFFFFFFFFFFFFFF AND MUL OR SWAP1 SSTORE POP PUSH20 0xBB4CDB9CBD36B01BD1CBAEBF2DE08D9173BC095C PUSH1 0x1 PUSH1 0x0 PUSH2 0x100 EXP DUP2 SLOAD DUP2 PUSH20 0xFFFFFFFFFFFFFFFFFFFFFFFFFFFFFFFFFFFFFFFF MUL NOT AND SWAP1 DUP4 PUSH20 0xFFFFFFFFFFFFFFFFFFFFFFFFFFFFFFFFFFFFFFFF AND MUL OR SWAP1 SSTORE POP PUSH20 0x1AF3F329E8BE154074D8769D1FFA4EE058B1DBC3 PUSH1 0x2 PUSH1 0x0 PUSH2 0x100 EXP DUP2 SLOAD DUP2 PUSH20 0xFFFFFFFFFFFFFFFFFFFFFFFFFFFFFFFFFFFFFFFF MUL NOT AND SWAP1 DUP4 PUSH20 0xFFFFFFFFFFFFFFFFFFFFFFFFFFFFFFFFFFFFFFFF AND MUL OR SWAP1 SSTORE POP PUSH20 0x8AC76A51CC950D9822D68B83FE1AD97B32CD580D PUSH1 0x3 PUSH1 0x0 PUSH2 0x100 EXP DUP2 SLOAD DUP2 PUSH20 0xFFFFFFFFFFFFFFFFFFFFFFFFFFFFFFFFFFFFFFFF MUL NOT AND SWAP1 DUP4 PUSH20 0xFFFFFFFFFFFFFFFFFFFFFFFFFFFFFFFFFFFFFFFF AND MUL OR SWAP1 SSTORE POP PUSH1 0x0 DUP1 SWAP1 SLOAD SWAP1 PUSH2 0x100 EXP SWAP1 DIV PUSH20 0xFFFFFFFFFFFFFFFFFFFFFFFFFFFFFFFFFFFFFFFF AND PUSH1 0x4 PUSH1 0x0 PUSH2 0x100 EXP DUP2 SLOAD DUP2 PUSH20 0xFFFFFFFFFFFFFFFFFFFFFFFFFFFFFFFFFFFFFFFF MUL NOT AND SWAP1 DUP4 PUSH20 0xFFFFFFFFFFFFFFFFFFFFFFFFFFFFFFFFFFFFFFFF AND MUL OR SWAP1 SSTORE POP CALLVALUE DUP1 ISZERO PUSH2 0x1C5 JUMPI PUSH1 0x0 DUP1 REVERT JUMPDEST POP CALLER PUSH1 0x5 PUSH1 0x0 PUSH2 0x100 EXP DUP2 SLOAD DUP2 PUSH20 0xFFFFFFFFFFFFFFFFFFFFFFFFFFFFFFFFFFFFFFFF MUL NOT AND SWAP1 DUP4 PUSH20 0xFFFFFFFFFFFFFFFFFFFFFFFFFFFFFFFFFFFFFFFF AND MUL OR SWAP1 SSTORE POP PUSH2 0x8CC DUP1 PUSH2 0x216 PUSH1 0x0 CODECOPY PUSH1 0x0 RETURN INVALID PUSH1 0x80 PUSH1 0x40 MSTORE PUSH1 0x4 CALLDATASIZE LT PUSH2 0x29 JUMPI PUSH1 0x0 CALLDATALOAD PUSH1 0xE0 SHR DUP1 PUSH4 0x10588581 EQ PUSH2 0x2B JUMPI DUP1 PUSH4 0x13AF4035 EQ PUSH2 0x54 JUMPI JUMPDEST STOP JUMPDEST CALLVALUE DUP1 ISZERO PUSH2 0x37 JUMPI PUSH1 0x0 DUP1 REVERT JUMPDEST POP PUSH2 0x52 PUSH1 0x4 DUP1 CALLDATASIZE SUB PUSH2 0x4D SWAP2 SWAP1 DUP2 ADD SWAP1 PUSH2 0x4C9 JUMP JUMPDEST PUSH2 0x7D JUMP JUMPDEST STOP JUMPDEST CALLVALUE DUP1 ISZERO PUSH2 0x60 JUMPI PUSH1 0x0 DUP1 REVERT JUMPDEST POP PUSH2 0x7B PUSH1 0x4 DUP1 CALLDATASIZE SUB PUSH2 0x76 SWAP2 SWAP1 DUP2 ADD SWAP1 PUSH2 0x4A0 JUMP JUMPDEST PUSH2 0x2E1 JUMP JUMPDEST STOP JUMPDEST PUSH1 0x5 PUSH1 0x0 SWAP1 SLOAD SWAP1 PUSH2 0x100 EXP SWAP1 DIV PUSH20 0xFFFFFFFFFFFFFFFFFFFFFFFFFFFFFFFFFFFFFFFF AND PUSH20 0xFFFFFFFFFFFFFFFFFFFFFFFFFFFFFFFFFFFFFFFF AND CALLER PUSH20 0xFFFFFFFFFFFFFFFFFFFFFFFFFFFFFFFFFFFFFFFF AND EQ PUSH2 0xD7 JUMPI PUSH1 0x0 DUP1 REVERT JUMPDEST PUSH1 0x0 DUP7 SWAP1 POP DUP1 PUSH20 0xFFFFFFFFFFFFFFFFFFFFFFFFFFFFFFFFFFFFFFFF AND PUSH4 0x23B872DD CALLER ADDRESS DUP10 PUSH1 0x40 MLOAD DUP5 PUSH4 0xFFFFFFFF AND PUSH1 0xE0 SHL DUP2 MSTORE PUSH1 0x4 ADD PUSH2 0x119 SWAP4 SWAP3 SWAP2 SWAP1 PUSH2 0x676 JUMP JUMPDEST PUSH1 0x20 PUSH1 0x40 MLOAD DUP1 DUP4 SUB DUP2 PUSH1 0x0 DUP8 DUP1 EXTCODESIZE ISZERO DUP1 ISZERO PUSH2 0x133 JUMPI PUSH1 0x0 DUP1 REVERT JUMPDEST POP GAS CALL ISZERO DUP1 ISZERO PUSH2 0x147 JUMPI RETURNDATASIZE PUSH1 0x0 DUP1 RETURNDATACOPY RETURNDATASIZE PUSH1 0x0 REVERT JUMPDEST POP POP POP POP PUSH1 0x40 MLOAD RETURNDATASIZE PUSH1 0x1F NOT PUSH1 0x1F DUP3 ADD AND DUP3 ADD DUP1 PUSH1 0x40 MSTORE POP PUSH2 0x16B SWAP2 SWAP1 DUP2 ADD SWAP1 PUSH2 0x59C JUMP JUMPDEST POP DUP1 PUSH20 0xFFFFFFFFFFFFFFFFFFFFFFFFFFFFFFFFFFFFFFFF AND PUSH4 0x95EA7B3 PUSH1 0x0 DUP1 SWAP1 SLOAD SWAP1 PUSH2 0x100 EXP SWAP1 DIV PUSH20 0xFFFFFFFFFFFFFFFFFFFFFFFFFFFFFFFFFFFFFFFF AND DUP9 PUSH1 0x40 MLOAD DUP4 PUSH4 0xFFFFFFFF AND PUSH1 0xE0 SHL DUP2 MSTORE PUSH1 0x4 ADD PUSH2 0x1C8 SWAP3 SWAP2 SWAP1 PUSH2 0x6AD JUMP JUMPDEST PUSH1 0x20 PUSH1 0x40 MLOAD DUP1 DUP4 SUB DUP2 PUSH1 0x0 DUP8 DUP1 EXTCODESIZE ISZERO DUP1 ISZERO PUSH2 0x1E2 JUMPI PUSH1 0x0 DUP1 REVERT JUMPDEST POP GAS CALL ISZERO DUP1 ISZERO PUSH2 0x1F6 JUMPI RETURNDATASIZE PUSH1 0x0 DUP1 RETURNDATACOPY RETURNDATASIZE PUSH1 0x0 REVERT JUMPDEST POP POP POP POP PUSH1 0x40 MLOAD RETURNDATASIZE PUSH1 0x1F NOT PUSH1 0x1F DUP3 ADD AND DUP3 ADD DUP1 PUSH1 0x40 MSTORE POP PUSH2 0x21A SWAP2 SWAP1 DUP2 ADD SWAP1 PUSH2 0x59C JUMP JUMPDEST POP PUSH1 0x4 PUSH1 0x0 SWAP1 SLOAD SWAP1 PUSH2 0x100 EXP SWAP1 DIV PUSH20 0xFFFFFFFFFFFFFFFFFFFFFFFFFFFFFFFFFFFFFFFF AND PUSH20 0xFFFFFFFFFFFFFFFFFFFFFFFFFFFFFFFFFFFFFFFF AND PUSH4 0x38ED1739 DUP8 DUP8 DUP8 DUP8 CALLER DUP9 PUSH1 0x40 MLOAD DUP8 PUSH4 0xFFFFFFFF AND PUSH1 0xE0 SHL DUP2 MSTORE PUSH1 0x4 ADD PUSH2 0x280 SWAP7 SWAP6 SWAP5 SWAP4 SWAP3 SWAP2 SWAP1 PUSH2 0x6D6 JUMP JUMPDEST PUSH1 0x0 PUSH1 0x40 MLOAD DUP1 DUP4 SUB DUP2 PUSH1 0x0 DUP8 DUP1 EXTCODESIZE ISZERO DUP1 ISZERO PUSH2 0x29A JUMPI PUSH1 0x0 DUP1 REVERT JUMPDEST POP GAS CALL ISZERO DUP1 ISZERO PUSH2 0x2AE JUMPI RETURNDATASIZE PUSH1 0x0 DUP1 RETURNDATACOPY RETURNDATASIZE PUSH1 0x0 REVERT JUMPDEST POP POP POP POP PUSH1 0x40 MLOAD RETURNDATASIZE PUSH1 0x0 DUP3 RETURNDATACOPY RETURNDATASIZE PUSH1 0x1F NOT PUSH1 0x1F DUP3 ADD AND DUP3 ADD DUP1 PUSH1 0x40 MSTORE POP PUSH2 0x2D7 SWAP2 SWAP1 DUP2 ADD SWAP1 PUSH2 0x55B JUMP JUMPDEST POP POP POP POP POP POP POP POP JUMP JUMPDEST PUSH1 0x5 PUSH1 0x0 SWAP1 SLOAD SWAP1 PUSH2 0x100 EXP SWAP1 DIV PUSH20 0xFFFFFFFFFFFFFFFFFFFFFFFFFFFFFFFFFFFFFFFF AND PUSH20 0xFFFFFFFFFFFFFFFFFFFFFFFFFFFFFFFFFFFFFFFF AND CALLER PUSH20 0xFFFFFFFFFFFFFFFFFFFFFFFFFFFFFFFFFFFFFFFF AND EQ PUSH2 0x33B JUMPI PUSH1 0x0 DUP1 REVERT JUMPDEST DUP1 PUSH1 0x5 PUSH1 0x0 PUSH2 0x100 EXP DUP2 SLOAD DUP2 PUSH20 0xFFFFFFFFFFFFFFFFFFFFFFFFFFFFFFFFFFFFFFFF MUL NOT AND SWAP1 DUP4 PUSH20 0xFFFFFFFFFFFFFFFFFFFFFFFFFFFFFFFFFFFFFFFF AND MUL OR SWAP1 SSTORE POP POP JUMP JUMPDEST PUSH1 0x0 DUP2 CALLDATALOAD SWAP1 POP PUSH2 0x38E DUP2 PUSH2 0x844 JUMP JUMPDEST SWAP3 SWAP2 POP POP JUMP JUMPDEST PUSH1 0x0 DUP1 DUP4 PUSH1 0x1F DUP5 ADD SLT PUSH2 0x3A6 JUMPI PUSH1 0x0 DUP1 REVERT JUMPDEST DUP3 CALLDATALOAD SWAP1 POP PUSH8 0xFFFFFFFFFFFFFFFF DUP2 GT ISZERO PUSH2 0x3BF JUMPI PUSH1 0x0 DUP1 REVERT JUMPDEST PUSH1 0x20 DUP4 ADD SWAP2 POP DUP4 PUSH1 0x20 DUP3 MUL DUP4 ADD GT ISZERO PUSH2 0x3D7 JUMPI PUSH1 0x0 DUP1 REVERT JUMPDEST SWAP3 POP SWAP3 SWAP1 POP JUMP JUMPDEST PUSH1 0x0 DUP3 PUSH1 0x1F DUP4 ADD SLT PUSH2 0x3EF JUMPI PUSH1 0x0 DUP1 REVERT JUMPDEST DUP2 MLOAD PUSH2 0x402 PUSH2 0x3FD DUP3 PUSH2 0x75F JUMP JUMPDEST PUSH2 0x732 JUMP JUMPDEST SWAP2 POP DUP2 DUP2 DUP4 MSTORE PUSH1 0x20 DUP5 ADD SWAP4 POP PUSH1 0x20 DUP2 ADD SWAP1 POP DUP4 DUP6 PUSH1 0x20 DUP5 MUL DUP3 ADD GT ISZERO PUSH2 0x427 JUMPI PUSH1 0x0 DUP1 REVERT JUMPDEST PUSH1 0x0 JUMPDEST DUP4 DUP2 LT ISZERO PUSH2 0x457 JUMPI DUP2 PUSH2 0x43D DUP9 DUP3 PUSH2 0x48B JUMP JUMPDEST DUP5 MSTORE PUSH1 0x20 DUP5 ADD SWAP4 POP PUSH1 0x20 DUP4 ADD SWAP3 POP POP PUSH1 0x1 DUP2 ADD SWAP1 POP PUSH2 0x42A JUMP JUMPDEST POP POP POP POP SWAP3 SWAP2 POP POP JUMP JUMPDEST PUSH1 0x0 DUP2 MLOAD SWAP1 POP PUSH2 0x470 DUP2 PUSH2 0x85B JUMP JUMPDEST SWAP3 SWAP2 POP POP JUMP JUMPDEST PUSH1 0x0 DUP2 CALLDATALOAD SWAP1 POP PUSH2 0x485 DUP2 PUSH2 0x872 JUMP JUMPDEST SWAP3 SWAP2 POP POP JUMP JUMPDEST PUSH1 0x0 DUP2 MLOAD SWAP1 POP PUSH2 0x49A DUP2 PUSH2 0x872 JUMP JUMPDEST SWAP3 SWAP2 POP POP JUMP JUMPDEST PUSH1 0x0 PUSH1 0x20 DUP3 DUP5 SUB SLT ISZERO PUSH2 0x4B2 JUMPI PUSH1 0x0 DUP1 REVERT JUMPDEST PUSH1 0x0 PUSH2 0x4C0 DUP5 DUP3 DUP6 ADD PUSH2 0x37F JUMP JUMPDEST SWAP2 POP POP SWAP3 SWAP2 POP POP JUMP JUMPDEST PUSH1 0x0 DUP1 PUSH1 0x0 DUP1 PUSH1 0x0 DUP1 PUSH1 0xA0 DUP8 DUP10 SUB SLT ISZERO PUSH2 0x4E2 JUMPI PUSH1 0x0 DUP1 REVERT JUMPDEST PUSH1 0x0 PUSH2 0x4F0 DUP10 DUP3 DUP11 ADD PUSH2 0x37F JUMP JUMPDEST SWAP7 POP POP PUSH1 0x20 PUSH2 0x501 DUP10 DUP3 DUP11 ADD PUSH2 0x476 JUMP JUMPDEST SWAP6 POP POP PUSH1 0x40 PUSH2 0x512 DUP10 DUP3 DUP11 ADD PUSH2 0x476 JUMP JUMPDEST SWAP5 POP POP PUSH1 0x60 DUP8 ADD CALLDATALOAD PUSH8 0xFFFFFFFFFFFFFFFF DUP2 GT ISZERO PUSH2 0x52F JUMPI PUSH1 0x0 DUP1 REVERT JUMPDEST PUSH2 0x53B DUP10 DUP3 DUP11 ADD PUSH2 0x394 JUMP JUMPDEST SWAP4 POP SWAP4 POP POP PUSH1 0x80 PUSH2 0x54E DUP10 DUP3 DUP11 ADD PUSH2 0x476 JUMP JUMPDEST SWAP2 POP POP SWAP3 SWAP6 POP SWAP3 SWAP6 POP SWAP3 SWAP6 JUMP JUMPDEST PUSH1 0x0 PUSH1 0x20 DUP3 DUP5 SUB SLT ISZERO PUSH2 0x56D JUMPI PUSH1 0x0 DUP1 REVERT JUMPDEST PUSH1 0x0 DUP3 ADD MLOAD PUSH8 0xFFFFFFFFFFFFFFFF DUP2 GT ISZERO PUSH2 0x587 JUMPI PUSH1 0x0 DUP1 REVERT JUMPDEST PUSH2 0x593 DUP5 DUP3 DUP6 ADD PUSH2 0x3DE JUMP JUMPDEST SWAP2 POP POP SWAP3 SWAP2 POP POP JUMP JUMPDEST PUSH1 0x0 PUSH1 0x20 DUP3 DUP5 SUB SLT ISZERO PUSH2 0x5AE JUMPI PUSH1 0x0 DUP1 REVERT JUMPDEST PUSH1 0x0 PUSH2 0x5BC DUP5 DUP3 DUP6 ADD PUSH2 0x461 JUMP JUMPDEST SWAP2 POP POP SWAP3 SWAP2 POP POP JUMP JUMPDEST PUSH1 0x0 PUSH2 0x5D1 DUP4 DUP4 PUSH2 0x5EC JUMP JUMPDEST PUSH1 0x20 DUP4 ADD SWAP1 POP SWAP3 SWAP2 POP POP JUMP JUMPDEST PUSH2 0x5E6 DUP2 PUSH2 0x80E JUMP JUMPDEST DUP3 MSTORE POP POP JUMP JUMPDEST PUSH2 0x5F5 DUP2 PUSH2 0x7C6 JUMP JUMPDEST DUP3 MSTORE POP POP JUMP JUMPDEST PUSH2 0x604 DUP2 PUSH2 0x7C6 JUMP JUMPDEST DUP3 MSTORE POP POP JUMP JUMPDEST PUSH1 0x0 PUSH2 0x616 DUP4 DUP6 PUSH2 0x79E JUMP JUMPDEST SWAP4 POP PUSH2 0x621 DUP3 PUSH2 0x787 JUMP JUMPDEST DUP1 PUSH1 0x0 JUMPDEST DUP6 DUP2 LT ISZERO PUSH2 0x65A JUMPI PUSH2 0x637 DUP3 DUP5 PUSH2 0x7AF JUMP JUMPDEST PUSH2 0x641 DUP9 DUP3 PUSH2 0x5C5 JUMP JUMPDEST SWAP8 POP PUSH2 0x64C DUP4 PUSH2 0x791 JUMP JUMPDEST SWAP3 POP POP PUSH1 0x1 DUP2 ADD SWAP1 POP PUSH2 0x625 JUMP JUMPDEST POP DUP6 SWAP3 POP POP POP SWAP4 SWAP3 POP POP POP JUMP JUMPDEST PUSH2 0x670 DUP2 PUSH2 0x804 JUMP JUMPDEST DUP3 MSTORE POP POP JUMP JUMPDEST PUSH1 0x0 PUSH1 0x60 DUP3 ADD SWAP1 POP PUSH2 0x68B PUSH1 0x0 DUP4 ADD DUP7 PUSH2 0x5DD JUMP JUMPDEST PUSH2 0x698 PUSH1 0x20 DUP4 ADD DUP6 PUSH2 0x5DD JUMP JUMPDEST PUSH2 0x6A5 PUSH1 0x40 DUP4 ADD DUP5 PUSH2 0x667 JUMP JUMPDEST SWAP5 SWAP4 POP POP POP POP JUMP JUMPDEST PUSH1 0x0 PUSH1 0x40 DUP3 ADD SWAP1 POP PUSH2 0x6C2 PUSH1 0x0 DUP4 ADD DUP6 PUSH2 0x5FB JUMP JUMPDEST PUSH2 0x6CF PUSH1 0x20 DUP4 ADD DUP5 PUSH2 0x667 JUMP JUMPDEST SWAP4 SWAP3 POP POP POP JUMP JUMPDEST PUSH1 0x0 PUSH1 0xA0 DUP3 ADD SWAP1 POP PUSH2 0x6EB PUSH1 0x0 DUP4 ADD DUP10 PUSH2 0x667 JUMP JUMPDEST PUSH2 0x6F8 PUSH1 0x20 DUP4 ADD DUP9 PUSH2 0x667 JUMP JUMPDEST DUP2 DUP2 SUB PUSH1 0x40 DUP4 ADD MSTORE PUSH2 0x70B DUP2 DUP7 DUP9 PUSH2 0x60A JUMP JUMPDEST SWAP1 POP PUSH2 0x71A PUSH1 0x60 DUP4 ADD DUP6 PUSH2 0x5DD JUMP JUMPDEST PUSH2 0x727 PUSH1 0x80 DUP4 ADD DUP5 PUSH2 0x667 JUMP JUMPDEST SWAP8 SWAP7 POP POP POP POP POP POP POP JUMP JUMPDEST PUSH1 0x0 PUSH1 0x40 MLOAD SWAP1 POP DUP2 DUP2 ADD DUP2 DUP2 LT PUSH8 0xFFFFFFFFFFFFFFFF DUP3 GT OR ISZERO PUSH2 0x755 JUMPI PUSH1 0x0 DUP1 REVERT JUMPDEST DUP1 PUSH1 0x40 MSTORE POP SWAP2 SWAP1 POP JUMP JUMPDEST PUSH1 0x0 PUSH8 0xFFFFFFFFFFFFFFFF DUP3 GT ISZERO PUSH2 0x776 JUMPI PUSH1 0x0 DUP1 REVERT JUMPDEST PUSH1 0x20 DUP3 MUL SWAP1 POP PUSH1 0x20 DUP2 ADD SWAP1 POP SWAP2 SWAP1 POP JUMP JUMPDEST PUSH1 0x0 DUP2 SWAP1 POP SWAP2 SWAP1 POP JUMP JUMPDEST PUSH1 0x0 PUSH1 0x20 DUP3 ADD SWAP1 POP SWAP2 SWAP1 POP JUMP JUMPDEST PUSH1 0x0 DUP3 DUP3 MSTORE PUSH1 0x20 DUP3 ADD SWAP1 POP SWAP3 SWAP2 POP POP JUMP JUMPDEST PUSH1 0x0 PUSH2 0x7BE PUSH1 0x20 DUP5 ADD DUP5 PUSH2 0x37F JUMP JUMPDEST SWAP1 POP SWAP3 SWAP2 POP POP JUMP JUMPDEST PUSH1 0x0 PUSH2 0x7D1 DUP3 PUSH2 0x7E4 JUMP JUMPDEST SWAP1 POP SWAP2 SWAP1 POP JUMP JUMPDEST PUSH1 0x0 DUP2 ISZERO ISZERO SWAP1 POP SWAP2 SWAP1 POP JUMP JUMPDEST PUSH1 0x0 PUSH20 0xFFFFFFFFFFFFFFFFFFFFFFFFFFFFFFFFFFFFFFFF DUP3 AND SWAP1 POP SWAP2 SWAP1 POP JUMP JUMPDEST PUSH1 0x0 DUP2 SWAP1 POP SWAP2 SWAP1 POP JUMP JUMPDEST PUSH1 0x0 PUSH2 0x819 DUP3 PUSH2 0x820 JUMP JUMPDEST SWAP1 POP SWAP2 SWAP1 POP JUMP JUMPDEST PUSH1 0x0 PUSH2 0x82B DUP3 PUSH2 0x832 JUMP JUMPDEST SWAP1 POP SWAP2 SWAP1 POP JUMP JUMPDEST PUSH1 0x0 PUSH2 0x83D DUP3 PUSH2 0x7E4 JUMP JUMPDEST SWAP1 POP SWAP2 SWAP1 POP JUMP JUMPDEST PUSH2 0x84D DUP2 PUSH2 0x7C6 JUMP JUMPDEST DUP2 EQ PUSH2 0x858 JUMPI PUSH1 0x0 DUP1 REVERT JUMPDEST POP JUMP JUMPDEST PUSH2 0x864 DUP2 PUSH2 0x7D8 JUMP JUMPDEST DUP2 EQ PUSH2 0x86F JUMPI PUSH1 0x0 DUP1 REVERT JUMPDEST POP JUMP JUMPDEST PUSH2 0x87B DUP2 PUSH2 0x804 JUMP JUMPDEST DUP2 EQ PUSH2 0x886 JUMPI PUSH1 0x0 DUP1 REVERT JUMPDEST POP JUMP INVALID LOG3 PUSH6 0x627A7A723158 KECCAK256 0xD7 0x1E 0xAB CREATE PUSH11 0xE65C6B09362B95553B48BC LOG2 EXTCODESIZE MSTORE 0xAD PUSH25 0xCAF60EC8592F851BE660766C6578706572696D656E74616CF5 PUSH5 0x736F6C6343 STOP SDIV GT STOP BLOCKHASH "
				},
				"gasEstimates": {
					"creation": {
						"codeDepositCost": "450400",
						"executionCost": "126523",
						"totalCost": "576923"
					},
					"external": {
						"": "96",
						"printMoney(address,uint256,uint256,address[],uint256)": "infinite",
						"setOwner(address)": "22192"
					}
				},
				"methodIdentifiers": {
					"printMoney(address,uint256,uint256,address[],uint256)": "10588581",
					"setOwner(address)": "13af4035"
				}
			},
			"storageLayout": {
				"storage": [
					{
						"astId": 422,
						"contract": "contracts/MoneyPrinter.sol:MoneyPrinter",
						"label": "uni_addr",
						"offset": 0,
						"slot": "0",
						"type": "t_address"
					},
					{
						"astId": 425,
						"contract": "contracts/MoneyPrinter.sol:MoneyPrinter",
						"label": "weth_addr",
						"offset": 0,
						"slot": "1",
						"type": "t_address"
					},
					{
						"astId": 428,
						"contract": "contracts/MoneyPrinter.sol:MoneyPrinter",
						"label": "dai_addr",
						"offset": 0,
						"slot": "2",
						"type": "t_address"
					},
					{
						"astId": 431,
						"contract": "contracts/MoneyPrinter.sol:MoneyPrinter",
						"label": "usdc_addr",
						"offset": 0,
						"slot": "3",
						"type": "t_address"
					},
					{
						"astId": 436,
						"contract": "contracts/MoneyPrinter.sol:MoneyPrinter",
						"label": "uni",
						"offset": 0,
						"slot": "4",
						"type": "t_contract(IUniswapV2Router02)395"
					},
					{
						"astId": 438,
						"contract": "contracts/MoneyPrinter.sol:MoneyPrinter",
						"label": "owner",
						"offset": 0,
						"slot": "5",
						"type": "t_address"
					}
				],
				"types": {
					"t_address": {
						"encoding": "inplace",
						"label": "address",
						"numberOfBytes": "20"
					},
					"t_contract(IUniswapV2Router02)395": {
						"encoding": "inplace",
						"label": "contract IUniswapV2Router02",
						"numberOfBytes": "20"
					}
				}
			},
			"userdoc": {
				"methods": {}
			}
		}
	}
}